:020000040800F2
:1000000018040020096900082D6500083165000802
:1000100000000000000000000000000000000000E0
:10002000000000000000000000000000356500082E
:100030000000000000000000376500083965000876
:10004000672F0008000000009B360008EF3600080C
:10005000456500082337000807510008BF5F000806
:1000600000000000476500088B6200085165000829
:100070003F6300082B650008876800080000000047
:1000800093680008616500086B650008D568000882
:100090002D690008756500082F690008316900089E
:1000A0003369000835690008376900087F65000872
:1000B000396900083B690008000000003D6900083C
:1000C0000020AA4908700020A84948700020A749CC
:1000D00088700020A549C870704780B50022A32110
:1000E0009020C00501F065FF0022A149A14801F060
:1000F00060FF01BD80B50022812109029020C0056A
:1001000001F057FF0022802109029A4801F051FFB7
:1001100001BD80B598480078052803D0964800783E
:10012000062802D1FFF7D9FF1FE19448C0780028C4
:1001300000D118E192480078002800D113E18F48DF
:10014000C079002804D18D480078002800D00AE149
:100150008A48007B002800D105E18A48C0780A2837
:1001600017DA012283219020C00501F022FF01222D
:100170008549804801F01DFF002220219020C00504
:1001800001F017FF00228421C9017A4801F011FF14
:10019000EBE07C48C078142817DA012282219020F5
:1001A000C00501F006FF01227749724801F001FF06
:1001B000002221219020C00501F0FBFE00228421B5
:1001C000C9016C4801F0F5FECFE06E48C0781E28EA
:1001D00017DA012280219020C00501F0EAFE0122F9
:1001E0006949644801F0E5FE002223219020C00502
:1001F00001F0DFFE00228421C9015E4801F0D9FE32
:10020000B3E06048C078282811DA01225E495948D5
:1002100001F0CFFE0022A3219020C00501F0C9FE0D
:1002200000228421C901534801F0C3FE9DE05548D6
:10023000C078322811DA0122E02189014D4801F00D
:10024000B8FE0022A3219020C00501F0B2FE0022DA
:100250004E49484801F0ADFE87E04A48C0783C2846
:1002600011DA0122C0218901424801F0A2FE0022D8
:10027000A3219020C00501F09CFE002244493D4886
:1002800001F097FE71E03F48C078462811DA01225C
:1002900080218901374801F08CFE0022A3219020A3
:1002A000C00501F086FE0022B149324801F081FE0E
:1002B0005BE03448C078502817DA012220219020D2
:1002C000C00501F076FE01228021C901294801F014
:1002D00070FE002283219020C00501F06AFE0022FA
:1002E000A449244801F065FE3FE02648C0785A281A
:1002F00011DA012220219020C00501F05AFE0022CF
:1003000083219020C00501F054FE002218491948AD
:1003100001F04FFE29E00022A3219020C00501F04A
:1003200048FE00221249134801F043FEFFF7C8FEC1
:10033000B7480068FA2806D20122802189000D48BA
:1003400001F037FE11E0002280218900094801F008
:1003500030FEAF480068FF21F631884205D3002007
:10036000AB49086001E0FFF7B8FE01BD1C080020A2
:10037000027A00000004004858080020B807002056
:10038000530800202008002002380000024200002C
:10039000024A000080B59F484078002800D1D9E08B
:1003A0009D480078002813D0022828D019D30428AB
:1003B0004CD03AD3062878D05CD3082800D194E0FA
:1003C00000D282E00A2800D1AFE000D29DE0BDE07B
:1003D000924801F042FE90480078401C8E49087017
:1003E000C4E08F480068B42800D2BFE08B4801F019
:1003F00065FE89480078401C87490870B6E085484A
:10040000C07900280AD187480078002806D0032048
:1004100081490870002082490860A7E000207E49D9
:10042000087000207B494870A0E07D480068B4282F
:1004300000D29BE0794801F010FE77480078401C1C
:10044000754908700020764908608FE0744800689C
:10045000B42800D28AE0714801F030FE6E4800787E
:10046000401C6D49087000206B49087000206949E4
:1004700048707BE0694801F0F0FD6648C07B0028C9
:1004800003D00620644908700EE065480068FA2130
:10049000490088426AD3614801F010FE00205E499D
:1004A000087000205B49487060E05D480068B4282F
:1004B0005CD35A4801F002FE0020594908605648B2
:1004C0000078401C5449087050E055480068B42832
:1004D0004CD3524801F0C1FD0020514908604E48FC
:1004E0000078401C4C49087040E04D480068B42832
:1004F0003CD34A4801F0E2FD0020494908604648E3
:100500000078401C4449087030E045480068B42831
:100510002CD3424801F0A1FD0020414908603E482B
:100520000078401C3C49087020E03D480068B42831
:100530001CD33A4801F0C2FD002037490870002062
:10054000374908600020334948700FE000203249E5
:1005500008700BE000203249086000202E49087026
:1005600000228021C900954801F023FD01BD000053
:10057000025A0000023A000080B526488078002820
:1005800021D004218D4801F009FD002817D08C48A6
:100590000068C9283AD300201E4988702148007895
:1005A000002802D001201B494870032085490870AB
:1005B00000201849487200201649087326E00020E0
:1005C0007F49086022E004217C4801F0E7FC002814
:1005D00016D17B480068FF21F631884216D30120EE
:1005E0000C49487201200B4988700E480078002899
:1005F00002D001200749487000200649087005E034
:1006000000206F49086001200249087001BD000008
:1006100008080020B807002057080020B405002073
:10062000E80700205308002080B5A1480078002882
:100630000BD164480078052807D062480078062866
:1006400003D09C48C0785A2809DB00224021902022
:10065000C00501F0AEFC00209749086050E09448C6
:10066000C079002843D09548007800283FD09048B2
:10067000007B00283BD01021504801F08FFC00285F
:1006800002D100208C4908608B4800688C49884260
:1006900008D301208649487000208549C87101208F
:1006A0008349087082480079002819D1854800687C
:1006B000042806D2012240219020C00501F079FCD7
:1006C0001EE0804800680B2806D2002240219020BE
:1006D000C00501F06EFC13E000207A4908600FE0CD
:1006E000012240219020C00501F063FC08E00022B7
:1006F00040219020C00501F05CFC00206E4908609C
:1007000001BD80B56A48007800280BD12D480078DB
:10071000052807D02B480078062803D06548C07804
:100720005A280ADB0022802149019020C00501F0EF
:1007300040FC0020644908603FE05D4840790028A3
:1007400031D05E48007800282DD059480079002823
:100750001ED15D4800685D49884207D20122802190
:1007600049019020C00501F024FC26E056480068AD
:10077000FA214901884207D20022802149019020B4
:10078000C00501F016FC18E000204F49086014E095
:100790000122802149019020C00501F00AFC0020BF
:1007A0004949086009E00022802149019020C005E4
:1007B00001F0FFFB00204449086001BD000400482F
:1007C000EC0700205808002000B5394800780028C0
:1007D00007D13F480078052803D03D480078062817
:1007E00000D144E03B48407805280EDA394880784B
:1007F00000280AD13748C078002806D1022036499F
:10080000087000203249087031E0324840781928D9
:1008100011DA3048807800280DD12E48C0780028A1
:1008200009D103202C4908700120294908700220B1
:100830002A4908701BE0274840781E2811DA25480D
:10084000807800280DD12348C078002809D10420E1
:100850002149087001201E49087001201F490870B5
:1008600005E005201C49087001201949087000BDE9
:1008700080B50F488079002818D00423184A1A211F
:10088000A02001F04DFE164800780A49087014486F
:1008900040780849487012488078064988701048A6
:1008A000C0780449C87000200149887101BD00006A
:1008B000B807002020080020F4070020530800207B
:1008C00089130000FC07002004080020B80B00007A
:1008D000580800201C080020560800205508002059
:1008E0002408002080B5B8480078002807D0B74811
:1008F0000078002803D0B4480079002807D1B44814
:10090000C0785A2842DBB148007800283ED0002247
:10091000802109029020C00501F04BFB00228021BC
:1009200049009020C00501F044FBA748C079002889
:1009300022D1A548007800281ED0A44800780028BD
:100940001AD0A4480068FA2806D2012280210902A0
:10095000A14801F02EFB36E10022802109029E48C9
:1009600001F027FB9B480068FF21F631884202D343
:1009700000209849086026E101228021090296485A
:1009800001F017FB0020934908601CE193480078B0
:10099000052814D10022802149009020C00501F0D3
:1009A00008FB0022802109029020C00501F001FB14
:1009B000012280210902884801F0FBFA17E08748EC
:1009C0000078062813D10022802149009020C0051C
:1009D00001F0EFFA0022802109029020C00501F009
:1009E000E8FA0122802109027B4801F0E2FA0020A6
:1009F0007849086074480079002800D1E1E0734824
:100A00000078002800D1DCE074480078002809D084
:100A1000022800D1B5E069D3042800D1C7E000D294
:100A2000B0E0D0E06E480078002814D10122802187
:100A300009029020C00501F0BCFA002280210902C1
:100A4000654801F0B6FA0022802149009020C005D7
:100A500001F0AFFA34E062480078012814D1002296
:100A6000802109029020C00501F0A3FA0022802114
:100A70000902594801F09DFA012280214900902085
:100A8000C00501F096FA1BE055480078022814D101
:100A90000022802109029020C00501F08AFA01227B
:100AA000802109024C4801F084FA0022802149008B
:100AB0009020C00501F07DFA02E00020484908704E
:100AC00048480068FA21890088427CD300204549C3
:100AD000086043480078401C41490870404800784D
:100AE000032802DB00203E4908706CE03E48007895
:100AF000012814D10122802109029020C00501F0B3
:100B000058FA002280210902334801F052FA0022EB
:100B1000802149009020C00501F04BFA30E03248B6
:100B20000078022814D10022802109029020C005FB
:100B300001F03FFA002280210902274801F039FA2A
:100B40000122802149009020C00501F032FA17E00F
:100B500025480078032813D1002280210902902023
:100B6000C00501F026FA0122802109021A4801F08D
:100B700020FA0022802149009020C00501F019FAD6
:100B800021E020E0012280210902134801F011FA3E
:100B90000022802109029020C00501F00AFA0022FB
:100BA000802149009020C00501F003FA0BE00020ED
:100BB0000B49087000200B490860002007490870A5
:100BC00001E0FFF797FA01BDB807002053080020A5
:100BD00020080020F80700200004004858080020E2
:100BE00054080020F00700205508002010B504002C
:100BF0002068AD490968884204D18021C900AB480A
:100C000001F0E1F92068AA490968884200D094E11E
:100C1000CA480068401CC9490860C9480068401CAF
:100C2000C7490860C7480068401CC6490860C648F4
:100C30000068401CC4490860C4480068401CC3499F
:100C40000860C3480068401CC1490860C14800688A
:100C5000401CC0490860C0480068401CBE4908608C
:100C6000BE480068401CBD490860BD480068401C83
:100C7000BB490860BA480068BA49884202D3BA48FA
:100C8000B7490860B9480068401CB8490860B848CE
:100C90000088B6490968884203D2B5480088B3493C
:100CA0000860B4480068401CB2490860B148006858
:100CB000B149884202D3B148AE490860B0480068E3
:100CC000401CAF490860AE480068AE49884202D374
:100CD000AD48AB490860AD480068401CAB490860AE
:100CE000AA480068AA49884203D3FA20C000A7494D
:100CF0000860A8480078042801D1012000E0002005
:100D0000A4490978052901D1012100E00021C0B2E0
:100D1000C9B20143002900D1ADE09F480088401CC2
:100D20009D49088080B2652800DAB0E000209A4929
:100D300008809A4800889A490988884204D29848CD
:100D400000889749088003E0944800889449088007
:100D50009448008891490988884204D291480088C3
:100D60009049088003E08D4800888E4908808A48B1
:100D700080688A4909884018874988608648808841
:100D8000401C854988808849097880B289B28842A8
:100D90007DD30020804988807F4880688049098809
:100DA000401A80490988401A7B49886000207C49A4
:100DB000088075487B490880774880687A490978B7
:100DC000891E01F00CFC74498881002072498860FA
:100DD00001207649C874704880896F49896A80B259
:100DE00008186D4988626C48808971490988884271
:100DF00004D26F4800886E49088003E06648808905
:100E00006B4908806B48008863498989884204D20D
:100E1000684800886749088003E05F488089654921
:100E200008805D48808C401C5B4988846249097851
:100E300080B289B288422AD3002057498884564814
:100E4000806A5B490988401A5A490988401A5A49F8
:100E50000978891E01F0C3FB4F4988850020544959
:100E6000088049485349088000204B498862012086
:100E70004E4948730BE000204749888400204649CA
:100E80000880002044498881002043498860414807
:100E90000078042801D1012000E000203D490978B4
:100EA000052907D1012106E0B4050020000400480F
:100EB000FC0500200021C0B2C9B20143002911D0B5
:100EC0009F480088401C9E4908809D4800889D4995
:100ED000884207DB00209A4908809B480088401C14
:100EE0009949088099480088401C9849088080B238
:100EF000652822DB0020954908802748806C274917
:100F0000098840182449886491480088401C904909
:100F100008802549097880B289B288420DD3002023
:100F20008B4908801C48806C1F49097801F057FBE9
:100F30008849088000201849886410BDE007002017
:100F4000E4070020E8070020EC070020F00700205D
:100F5000F4070020F80700201008002014080020E3
:100F600000080020214E0000204E0000FC07002059
:100F70000C000020040800203175000030750000CE
:100F80000808002011270000102700000C0800208E
:100F9000D10700005608002064050020DC0700206F
:100FA0004E0800200800002010000020B807002094
:100FB000500800200A0000200F00002000B56648FD
:100FC0000088401C64490880634800883D2807DB8E
:100FD00000206149088061480068401C5F49086042
:100FE0005F48007800280FD15E48007800280BD0B9
:100FF0005B48007B002807D05B480078052803D0B9
:1010000059480078062800D199E05848C0785A28F5
:1010100000DB94E056480078401C5549087054485D
:1010200000783C281FDB0020514908705048407868
:10103000401C4F4948704E4840783C2813DB002044
:101040004B4948704A488078401C49498870484854
:101050008078182807DB0020454988704448C0780C
:10106000401C4349C87041480078401C3F49087003
:101070003E4800783C2862DB00203C4908703B4831
:101080004078401C39494870384840783C2813DB88
:1010900000203649487035488078401C33498870B4
:1010A00032488078182807DB0020304988702F48A4
:1010B000C078401C2D49C8702C4800782D49087014
:1010C0002A4840782B4948702848807829498870F8
:1010D0002648C0782749C8702448407800282BD07B
:1010E00022484078052827D0204840780A2823D075
:1010F0001E4840780F281FD01C48407814281BD069
:101100001A484078192817D0184840781E2813D05C
:101110001648407823280FD01448407828280BD050
:10112000124840782D2807D010484078322803D044
:101130000E484078372802D101200949887200BD45
:101140004A080020E903000048080020AA05002002
:10115000B2050020B00500204C080020180800202F
:10116000B80700205308002058080020200800205D
:101170001C0800203408002080B5B548407A0028BB
:1011800000D1E5E0B3480068642800D25FE10423A1
:10119000B14A1A21A02001F0E2F90423AF4A1A2132
:1011A000A02001F0DCF90423AD4A1A21A02001F0AF
:1011B000D6F9AC480068002802D00520A84908707C
:1011C000A5480078A5490978884200D0AAE0A2483D
:1011D0000078A3490978884200D0A3E09E4840786F
:1011E0009E494978884200D09CE09B4840789C49C1
:1011F0004978884200D095E0974880789749897867
:10120000884200D08EE09448807895498978884259
:1012100000D087E090480078FF280BD08E480078F7
:101220007F2807D08C4800783D2803DB8A48007867
:10123000FF282FD188484078FF280BD08648407877
:101240007F2807D0844840783D2803DB82484078D7
:10125000FF281FD180488078FF280BD07E488078F7
:101260007F2807D07C488078192803DB7A4880786B
:10127000FF280FD17848C078FF2811D07648C07871
:101280007F280DD07448C0785B2809DB7248C0788D
:10129000FF2805D074480078401C7349087046E068
:1012A00000206B4948726C480078FF2803D06A48D8
:1012B00000787F2801D1002001E0674800786B4961
:1012C000087065484078FF2803D0634840787F283D
:1012D00001D1002001E060484078644948705E48D0
:1012E0008078FF2803D05C4880787F2801D10020D7
:1012F00001E0594880785D4988705748C078FF28D8
:1013000003D05548C0787F2801D1002001E0524821
:10131000C0785649C87001204D49087300205249D1
:10132000087004E050480078401C4F4908704E484F
:101330000078332812DB4E48007800280ED00620B3
:101340004C490870FEF7BCFE00204749087005E0D4
:1013500000203F49487200203E4908603C48807A9E
:10136000002871D044480078002805D002281CD0FD
:1013700011D3032825D050E00423404A1A21A0208D
:1013800001F0CEF800203E4908603B480078401C40
:101390003949087044E03A480068332804D3364895
:1013A0000078401C344908703AE00423354A1A2179
:1013B000A02001F0D4F830480078401C2E49087075
:1013C0002EE031480068002802D005202D494870E1
:1013D0002C48407829494978884215D12948807895
:1013E0002649897888420FD12648C0782349C97890
:1013F000884209D1002016498872002023490870CC
:1014000001201349887404E020480078401C1F49DB
:10141000087000201849087002E000201649087082
:101420001A480078332812DB1148007800280ED0C3
:10143000052010490870002005498872FEF740FE1B
:1014400000201249087002E000200D49086001BD2B
:10145000B807002000080020280800202C080020E1
:10146000300800203C0800205908002020080020F7
:1014700053080020580800205B0800203408002092
:101480001008002038080020400800205A080020DA
:10149000F0B58BB0C6480068652800D26CE100202A
:1014A000C3490860C748807C002817D0C148C0786D
:1014B0000090C0488378BF484278BF49BB4801F0DC
:1014C000E5F8BA4801F0FEF8020092B2B749BC480C
:1014D00001F040F90020BB4988744DE1B948C07C57
:1014E000002800D148E1A548008801F047FDA4A2EA
:1014F0000CCA01F053FD0022A34B01F011FE01F0D4
:1015000070FEAE490861AD480069A04901F09AFE3D
:101510009F4901F0EFFEA9494861A8484069A749E1
:10152000096901F03CFFA5498861A448806901F080
:10153000C1FF02000B0097A003C801F0F1FD0022DB
:10154000964B01F0D0FF0022954B01F027FD02F0F1
:10155000A5F89A49C8819B48C079002819D19948B3
:101560000078002815D08F480078002811D09348C3
:10157000C089C4494979019180B200908F480069BF
:1015800001F098FF02000B008749884801F07EF8BF
:10159000E6E08C488078002815D18A480078002839
:1015A00011D08648C089B7494979019180B200902D
:1015B0008248006901F07EFF02000B00B2497B48BF
:1015C00001F064F8CCE0B1480078052800D0B6E01E
:1015D000AF480078012838D178484021415E7748EB
:1015E0004422805E754A4223D75E744A4223D65E07
:1015F000724A4423D45E714AD589A24A527908922C
:101600005022079209B2069100B202F071F80990D7
:101610003FB2380002F06CF80100099801F06AFE50
:1016200001F048FF0490059136B2029624B201946D
:10163000ADB200956148006901F03CFF02000B006B
:1016400094495A4801F022F88AE09148007802282B
:1016500038D15A484021415E58484422805E574A5A
:101660004223D75E554A4223D65E544A4423D45E71
:10167000524AD589834A527908925022079209B278
:10168000069100B202F034F809903FB2380002F03F
:101690002FF80100099801F02DFE01F00BFF0490D6
:1016A000059136B2029624B20194ADB2009543483A
:1016B000006901F0FFFE02000B00A5493B4800F065
:1016C000E5FF4DE072480078032849D13B484021AE
:1016D000415E3A484422805E384A4223D75E374A08
:1016E0004223D65E354A4423D45E344AD589654ABE
:1016F000527908925022079209B2069100B201F085
:10170000F7FF09903FB2380001F0F2FF010009989D
:1017100001F0F0FD01F0CEFE0490059136B2029684
:1017200024B20194ADB200952448006901F0C2FED4
:1017300002000B0087491D4800F0A8FF10E01F4879
:10174000C08950494979019180B200901B480069D5
:1017500001F0B0FE02000B007F49144800F096FF34
:10176000124800F0AFFF020092B21049144800F096
:10177000F1FF00201349C8740BB0F0BDB005002084
:10178000068195438B6C0A400000B0400000614523
:101790000080D44521B0726891ED13400000F0BF85
:1017A0000050C44053080020BC6700081804002003
:1017B0001408002038080020546700086405002041
:1017C000E0040020B807002080B59C48007C002879
:1017D0002BD000209949087401F0EBFF984802F0E3
:1017E0006BF898480068022188439649086093483E
:1017F000C27B00239249022001F094FF8F480279B6
:1018000000239149022001F08DFF8C48C27800230B
:101810008E49022001F086FF8D4802780023D049CE
:10182000022001F07FFF01F0D7FF8448407C0028B0
:1018300027D000208149487401F0BBFF804802F0A6
:101840003BF880480068022188437E4908600022F6
:1018500000237B49022001F065FF002200237A4922
:10186000022001F05FFF002200237849022001F0EE
:1018700059FF00220023BA49022001F053FF01F072
:10188000ABFF01BDD4070020E86700085608002020
:1018900055080020BC65000880B5CB4800780028BA
:1018A00024D0C9484078002820D001F082FFB948F0
:1018B00002F002F863480068022188436149086029
:1018C000C14842780023B349022001F02BFF01F008
:1018D00083FFB0480068BC494978C0B2884205D14E
:1018E0000020B94908700020B7494870B648807890
:1018F00000280DD0A7480068B349C870A548006803
:10190000B149C978C0B2884202D10020AE4988707E
:10191000AD48007900281AD001F04BFF9D4801F036
:10192000CBFF4848006802218843464908600022EE
:1019300000239849022001F0F5FE01F04DFF954883
:101940000068C0B2002802D100209F49087101BD83
:101950001C6600087C660008DC66000880B501F0A3
:10196000C3FF00F077F800F09FF900F079F900F07C
:101970004CF900F0A9F800F0F5F800F00DF900F0CE
:1019800025F902F02AFB02F0BCFBC54800F065FB1C
:101990000222B249C34802F0ABFC002801D000F09B
:1019A00009FA012025494870254800682349C87371
:1019B0002248C07BFE2803D101202049C87306E0DD
:1019C0001E48C07BFF2802D100201C49C8731B4859
:1019D000C07B002815D01C480068184908711B48B6
:1019E00000681649C8705E480068194908701848B0
:1019F0000078002805D001201049C87101200F4946
:101A0000487102F031FEFEF784FBFEF7C3FC03F0E1
:101A100023F9FEF7B1FDFEF765FFFEF772FEFEF754
:101A200027FFFEF7D1FEFEF7FFFDFFF7A5FBFFF74F
:101A30002FFDFFF7C9FEFFF72FFFE2E7B8070020F1
:101A400000F801081020024004F8010808F8010815
:101A50005308002000B595B009A8302103F01CF907
:101A60006846102103F018F904A8142103F014F9B2
:101A70000220099001200C9010200D900020119060
:101A800009A801F041FF002801D000F093F90720D8
:101A9000009000200190002002900020039000217F
:101AA000684602F0BBF9002801D000F083F901205C
:101AB00004900020069004A803F0F0F8002801D05C
:101AC00000F078F915B000BDE0B568460C2103F0D0
:101AD000E3F8AA48734908608020C005714948604E
:101AE00000207049886000206E49C86001206D495F
:101AF000086108206B49486100206A490876002087
:101B00006849487601206749887600206549C8768B
:101B1000FF20C2306349C861002062490862012089
:101B20009749087000205F49886206205D49C862B5
:101B30005C4802F0FBFA002801D000F03BF90220DB
:101B4000009080204001019080204005029069466D
:101B5000544802F029FC002801D000F02BF907BD01
:101B60000CF8010880B58748874908600720864936
:101B70004860002084498860B3208349C860002001
:101B800081498861804800F031FA002801D000F0D6
:101B900011F901BDF0FF010880B57C48404908609B
:101BA00007203F49486000203D49886078483C490B
:101BB000C86000203A498861394800F017FA0028C7
:101BC00001D000F0F7F801BDD407002080B57148BE
:101BD0007149086001207049486000206E498860A2
:101BE000FF2090306C49C86000206B4908610020DC
:101BF00069494861002068498861674800F0F6F942
:101C0000002801D000F0D6F801BD80B563486449D2
:101C10000860962080016249486000206049886021
:101C200000205F49C86000205D4908610C205C49C4
:101C3000486100205A49886100205949C861002044
:101C400057490862002056494862554800F042FD55
:101C5000002801D000F0AEF801BD0000DC07002034
:101C600080B550480068012101434E4801604D484D
:101C700000680100C907C90F0091009800220021E7
:101C8000092002F034FA092002F036FA002200217D
:101C90000B2002F02CFA0B2002F02EFA01BD0000FE
:101CA000FC0500205807002000B587B001A81421CA
:101CB00002F0F2FF3B4800688021C9030143394824
:101CC0000160384800688021C903084000900098EE
:101CD000344800688021890201433248016031485C
:101CE0000068802189020840009000982D48006813
:101CF0008021C90201432B4801602A4800688021E5
:101D0000C902084000900098002227499020C00591
:101D100000F04FF900222549254800F04AF92248F1
:101D2000019001200290002003900020049001A95E
:101D30009020C00500F046F811200190002002908C
:101D40000020039001A91A4800F03CF817480190C0
:101D500001200290002003900020049001A9144863
:101D600000F030F804200190002002900120039040
:101D700001A90F4800F026F807B000BD002401407B
:101D80007C07002000100040B40500200014004033
:101D9000E7030000004401404406002000380140F1
:101DA000E004002014100240E3910000C2FE000095
:101DB0000004004800B572B6FEE70268531C0360D9
:101DC00011707047F8B50200002333E005201D00B4
:101DD000AD07AD0F04277D43A840304306006A4895
:101DE0009D0804277D43465168480668A643486815
:101DF000C00300D526436548066065480668A643CB
:101E00004868800300D5264361480660614806683B
:101E1000A6434868C00200D526435E4806605E4877
:101E20000668A6434868800201D5344326005A4814
:101E300006605B1C0868D840002800D1A2E0086852
:101E400001249C400440002CF3D04868012808D0AD
:101E50004868022805D04868112802D0486812282E
:101E60001AD1966803201D0002277D43A8408643AF
:101E7000C8681D0002277D43A840304306009660D5
:101E80005668012098408643350048680600F606EB
:101E9000F60F9E402E435660D66803201D00022791
:101EA0007D43A840864388681D0002277D43A840E3
:101EB00030430600D6604868022802D048681228DD
:101EC0001AD1D808042568431018066A0F201D008F
:101ED0006D076D0F04277D43A840864308691D00E8
:101EE0006D076D0F04277D43A84030430600D808D6
:101EF0000425684310180662166803201D00022797
:101F00007D43A840864330000D79AE07B60F1F0011
:101F100002256F43BE40064316604868C00088D55E
:101F20002E480068012505432C4805602B480068B1
:101F30000500ED07ED0F0095009813489D08042655
:101F40007543465935000F201E00B607B60F04270B
:101F50007E43B0402E0086439020C005824201D1CE
:101F6000002034E71E48824201D101202FE71D489E
:101F7000824201D102202AE71B48824200D025E795
:101F8000032024E7F1BD00000800014000040140E7
:101F900004040140080401400C04014000B500693C
:101FA00089B20840002801D0012000E00020C0B222
:101FB00000BD00B5D2B2002A02D089B2816101E031
:101FC00089B2816200BD426989B20B0013401B04D3
:101FD00089B2914319438161704700001810024093
:101FE0000004004800080048000C004810B5040038
:101FF000002C01D101202FE03D20205C002805D1DC
:1020000000203C216054200002F070FF02203D219E
:102010006054211D206800F03AF9012046216054E7
:1020200001203E21605401203F21605401204021C5
:10203000605401204121605401204221605401205C
:102040004321605401204421605401204521605403
:1020500001203D216054002010BD00B53D21415CB0
:10206000012901D0012028E002213D22815401688C
:10207000C96801220A430168CA600168204A914286
:1020800007D001681F4A914203D001681E4A91425D
:102090000CD1016889684907490F06290CD00168ED
:1020A000096801220A430068026005E001680968C6
:1020B00001220A4300680260002000BD00B50168EB
:1020C000C968012291430268D1600168096A0A4A1D
:1020D0000A40002A0BD10168096A084A0A40002A0E
:1020E00005D101680968012291430268116001214C
:1020F0003D228154002000BD111100004404000065
:10210000002C0140000400400040014010B50400D4
:102110002068006980071BD52068C068800717D534
:102120000220C0432168086101202077206880696F
:102130008007800F002803D0200002F0DDFF05E0BB
:10214000200002F0DAFF200002F0D8FF0020207704
:102150002068006940071CD52068C068400718D572
:102160000420C0432168086102202077206880692C
:10217000C02189000140002903D0200002F0BCFFEB
:1021800005E0200002F0B9FF200002F0B7FF0020B8
:1021900020772068006900071BD52068C068000709
:1021A00017D50820C04321680861042020772068E3
:1021B000C0698007800F002803D0200002F09CFF38
:1021C00005E0200002F099FF200002F097FF0020B8
:1021D000207720680069C0061CD52068C068C0064A
:1021E00018D51020C0432168086108202077206896
:1021F000C069C02189000140002903D0200002F0FD
:102200007BFF05E0200002F078FF200002F076FF5F
:102210000020207720680069C0070AD52068C068C0
:10222000C00706D50120C043216808612000FEF7E1
:10223000DDFC2068006900060AD52068C068000639
:1022400006D58020C04321680861200002F057FFB6
:102250002068006940060AD52068C068400606D597
:102260004020C04321680861200002F049FF206837
:10227000006980060AD52068C068800606D520203F
:10228000C04321680861200002F03BFF10BD00B58B
:1022900002681F4B984202D01E4B984204D1702313
:1022A0009A4313004A681A43194B98420ED0194BAF
:1022B00098420BD0184B984208D0184B984205D042
:1022C000174B984202D0184B984205D11300154A7B
:1022D0001A401300CA681A4380239A4313004A69BC
:1022E0001A4302608A68C2620A688262084A90429F
:1022F00008D00A4A904205D0094A904202D00A4AC0
:10230000904201D1096901630121416100BD0000D2
:10231000002C01400004004000200040004001402B
:1023200000440140FFFCFFFF0048014080B57948B0
:102330000068A021C9010143764801600122802183
:102340007448FFF736FE012240217248FFF731FE44
:1023500000BF00BF002280216E48FFF72AFE00BFA9
:1023600000BF002240216B48FFF723FE00BF00BFE3
:1023700001BD000080B567480068A021C901014384
:1023800064480160002280216248FFF712FE00BF0E
:1023900000BF012240215F48FFF70BFE00BF00BFD6
:1023A000012280215B48FFF704FE01BD38B505001E
:1023B0000024584800688021C90101435548016044
:1023C000002419E0002280215248FFF7F2FD00BFEF
:1023D00000BF00BF012240214E48FFF7EAFD00BFC9
:1023E00000BF00BF6D00002240214A48FFF7E1FD19
:1023F00000BF00BF00BF641CE4B2082C08DAEDB2D5
:102400002806DFD5012280214248FFF7D2FDDEE712
:1024100040480068404901403E48016000BF00BF9D
:10242000002240213B48FFF7C4FD00BF00BF01224E
:1024300040213848FFF7BDFD00BF00BF002240210A
:102440003448FFF7B6FD334800688021C9010143D5
:102450003048016031BD000070B5060000242D48F1
:1024600000682D4901402B48016000BF00BF00BF3C
:1024700000BF00251BE000BF00BF00BF01224021BC
:102480002448FFF796FD00BF00BF00BF640023484B
:102490000068000602D520000124044300224021E8
:1024A0001C48FFF786FD00BF00BF00BF6D1CEDB2EA
:1024B000082DE0DB174800688021C9010143154859
:1024C0000160F6B2012E05D1012280211148FFF7EB
:1024D00070FD04E0002280210E48FFF76AFD00BF76
:1024E00000BF012240210B48FFF763FD00BF00BF82
:1024F00000BF002240210748FFF75BFD0122802139
:102500000448FFF756FD00BF00BF00BF2000C0B267
:1025100070BD000000040048FF3FFFFF10040048AA
:10252000F8B504000F0015001E00FFF7FFFE2000A5
:10253000C0B2FFF73BFF3800C0B2FFF737FF0024FF
:1025400004E0E4B2285DFFF731FF641C2000310095
:10255000C0B2C9B28842F4D3FFF70CFFF1BDF8B5A1
:1025600004000F0015001E00FFF7E0FE2000C0B2BF
:10257000FFF71CFF3800C0B2FFF718FFFFF7D6FEC9
:10258000641C2000C0B2FFF711FF002405E000200A
:10259000FFF762FFE4B22855641C20003100C0B28E
:1025A000C9B28842F3D3FFF7E5FEF1BDF446002837
:1025B00004D4494200F013F84042604740420029E9
:1025C00005D45FD000F00BF84042494260474942D1
:1025D00000F005F84942604703460B43E6D4002269
:1025E000030A8B420BD203098B4219D243088B4258
:1025F0002ED2411A00D20146524110467047FF22A6
:1026000009023FD012068B4205D3121209028B42F7
:1026100001D31212090203098B4219D300E0090AFF
:10262000C3098B4201D3CB01C01A524183098B42AB
:1026300001D38B01C01A524143098B4201D34B0194
:10264000C01A524103098B4201D30B01C01A5241F7
:10265000C3088B4201D3CB00C01A524183088B427E
:1026600001D38B00C01A524143088B4201D34B0067
:10267000C01A5241884200D3401A5241CFD201467B
:102680001046704708B502F03DFD08BD0CB41CB5FE
:10269000040004A80190009401AB0A0069460848B0
:1026A00078441C3002F030FD0021009A117000289F
:1026B00001D40098001B02B0019910BC03B0084778
:1026C000FBF6FFFF010000E0491C0A78002AFBD15D
:1026D000081A704710B50400002C01D1012035E024
:1026E000A0690028FFD1A06F002805D10020742127
:1026F0006054200002F04EFC2420A067206800688F
:102700000121884321680860200000F0C3F90128F6
:1027100001D101201AE0606A002802D0200000F0F8
:1027200075FA206840680A490140206841602068C5
:10273000806808218843216888602068006801213A
:10274000014320680160200000F0D4FA10BD0000B1
:10275000FFF7FFFF10B50400A06F202858D1002913
:1027600002D092B2002A01D1012052E0A068802359
:102770005B01984207D12069002804D10800C007F6
:1027800001D5012045E07420205C012801D1022000
:102790003FE001207423E054E16450202252522093
:1027A00022520020802160502120A067E06E002886
:1027B00020D01848E16E88621748E16EC862174859
:1027C000E16E08630020E16E486392B21300206856
:1027D00002002832E16CE06E03F022FC002809D0F0
:1027E0001020802160500020742160542020A067B8
:1027F00001200EE04020216808620020742160540E
:10280000206880688021014320688160002000E00A
:10281000022010BDA52E0008D72E0008E92E0008C2
:1028200038B504002068C069216809682268926888
:10283000934B0340002B0AD1850608D58D0606D59B
:10284000606E002802D02000616E884716E1002BE0
:1028500000D18EE0D30704D48A4B0B40002B00D16B
:1028600087E0C3070AD5CB0508D5012325682B626D
:102870008023E35801251D438023E55083070AD5B3
:10288000D30708D5022325682B628023E35804254B
:102890001D438023E55043070AD5D30708D50423F9
:1028A00025682B628023E35802251D438023E550D1
:1028B00003070CD58B0601D4D20708D5082223685C
:1028C0001A628022A258082313438022A3500205D3
:1028D0000BD54A0109D58022120123681A62802291
:1028E000A258202313438022A3508022A258002AFA
:1028F0003ED0800607D5880605D5606E002802D038
:102900002000616E88478020205821688968490628
:1029100003D428210140002924D0200000F09FFA90
:1029200020688068400619D5206880684021884367
:1029300021688860206F00280CD05348216F4863BD
:10294000206F03F0D4FB002812D0206F216F496B59
:1029500088470DE0200003F07FFC09E0200003F031
:102960007BFC05E0200003F077FC00208021605014
:1029700084E0226E012A6ED1C2066CD5CA066AD5E1
:102980001020216808622068806840063AD5206FD0
:102990000068406880B2002833D001005822A25A53
:1029A00089B291422DD25A216052206F806920282D
:1029B0001ED0206800683549014020680160206809
:1029C00080680121884321688860206880684021F0
:1029D0008843216888602020E06700202066206806
:1029E00000681021884321680860206F03F05AFBBB
:1029F0005820205A5A21615A411A89B2200003F006
:102A00002CFC3BE05820205A5A21615A411A5A2086
:102A1000205A00281ED089B200291BD020680068E7
:102A20001B4A0240206802602068806801229043AF
:102A3000226890602020E067002020660020606609
:102A400020680068102290432268106089B220003C
:102A500003F003FC12E0020608D50A0606D5A06EB4
:102A6000002802D02000A16E884707E0400605D567
:102A7000480603D5200000F068FAFFE731BD0000EA
:102A80000F08000020010004352F0008FFFEFFFFA3
:102A9000DFFEFFFF38B504000025A068216901436F
:102AA00062690A43E0691043216809688F4A0A4055
:102AB000104321680860206840688D490140E06843
:102AC000084321684860A0690100206A0843216822
:102AD0008968A34A0A401043216888602068A14998
:102AE000884215D1A04800688007800F002805D0D3
:102AF000022809D006D3032802D007E000201AE0FC
:102B0000022018E0042016E0082014E0102012E053
:102B100020689649884201D100200CE02068944941
:102B2000884201D1002006E020689249884201D104
:102B3000002000E01020E16980221202914234D18D
:102B4000C0B2002806D0022807D0042807D00828E1
:102B500008D00AE001F046FA09E0B34807E001F0C6
:102B600001FA04E08020000201E000200125002895
:102B700044D0022148436168490840186168FFF762
:102B80002EFD80B201001039A84A91420BD20200FA
:102B9000A64911400A0040084107490F114389B274
:102BA0002068C1602AE0012528E0C0B2002806D0D4
:102BB000022807D0042807D0082808D00AE001F02E
:102BC00011FA09E0984807E001F0CCF904E0802010
:102BD000000201E00020012500280FD061684908AB
:102BE00040186168FFF7FBFC80B2010010398F4A82
:102BF000914202D22168C86000E001250020606691
:102C00000020A0662800C0B232BD000000B524211B
:102C1000415CC90707D501684968854A0A40816A4D
:102C20001143026851602421415C890707D501687E
:102C30004968804A0A40C16A1143026851602421F0
:102C4000415C490707D5016849687B4A0A40016B26
:102C50001143026851602421415C090707D50168CE
:102C60004968764A0A40416B114302685160242149
:102C7000415CC90607D501688968714A0A40816BC1
:102C80001143026891602421415C890607D50168DF
:102C900089686C4A0A40C16B114302689160242123
:102CA000415C490614D501684968674A0A40016CCD
:102CB000114302685160016C80225203914207D196
:102CC00001684968744A0A40416C114302685160C6
:102CD0002421415C090607D5016849686F4A0A400A
:102CE000816C11430068416000BD0000F369FFEF93
:102CF000FFCFFFFF38B5040000208021605003F0B3
:102D0000ADFA05002068006800070CD56448009003
:102D10002B00002280218903200000F02DF80028DC
:102D200001D003201AE02068006840070CD55C48F9
:102D300000902B0000228021C903200000F01CF825
:102D4000002801D0032009E02020A0672020E067B0
:102D500000202066002074216054002032BD000055
:102D6000FFF4FFFF003801403010024000440040F3
:102D700000480040004C0040F4B504000D001F0066
:102D8000069E2068C0692840A84201D1012000E0C9
:102D9000002069460978884243D10020C04386421A
:102DA000EFD003F05BFAC01B864201D3002E14D192
:102DB000206800684A4901402068016020688068F6
:102DC00001218843216888602020A0672020E067D7
:102DD000002074216054032024E02068006840072C
:102DE000CFD52068C0690005CBD5802000012168BF
:102DF0000862206800683A49014020680160206844
:102E0000806801218843216888602020A0672020F5
:102E1000E06720208021605000207421605403204E
:102E200000E00020F2BD000000127A00F0FF000078
:102E3000FFFFFDFFFFFFFEFFFFFFFBFFFF7FFFFF29
:102E4000FFEFFFFFFFDFFFFFFFFFEFFF01680968F4
:102E5000C02291430268116020218167704700B54C
:102E6000016809681F4A0A4001680A6001688968A8
:102E70000122914302689160016E012905D1016828
:102E8000096810229143026811602021C167002166
:102E900001660021416600BDFFFF9FFFFFFFF7FFB6
:102EA000FFFFFF0180B50100486A896920290FD022
:102EB0000021522281520168896880229143026870
:102EC00091600168096840220A430068026001E0DD
:102ED00003F0CAF901BD80B5406A03F0C6F901BD2F
:102EE0005FFEFFFFDFFEFFFF38B5446AA06FE56FAE
:102EF00021688968090607D5212805D100205221BB
:102F000060522000FFF7A2FF20688068400607D5C6
:102F1000222D05D100205A2160522000FFF79FFF8B
:102F2000802020581021014380202150200003F0F0
:102F300093F931BD80B5406A00215A2281520021A7
:102F40005222815203F088F901BD80B501680968F9
:102F5000402291430268116020218167002181662F
:102F600003F082F901BDFEE7010009D5F4464042B5
:102F700000F006F80122D20711436047010000BFAC
:102F800042221201D21E004207D002D4521E001863
:102F9000FCD5C10A4005120589187047F0B50E002E
:102FA0005E400125ED072E40B446AE0ADF184C18EE
:102FB000F44208D2F7420ED2640D01D07F0D12D137
:102FC00000206146F0BD05D1F74201D87F0D05D143
:102FD0000020C143F0BDFBD1640DF9D00020C143F6
:102FE000490549088FE0E419C902DB0229432B4354
:102FF000DB0A460DC00231438E4630B487B295B22B
:103000007D432E0CADB2140C7C43A419260C240471
:1030100025439CB27C43A419190C7943270CC91988
:10302000A4B20F043C43090C000C97B247432E0C8A
:10303000BE193543ADB2170C4743360CBF19A6B2C3
:10304000BF193E043543240C3E0C36199FB247434A
:10305000BF19BCB23E0C89191F0C47437F183E04B0
:103060003443390C704680B297B247432E0CBE19D8
:103070003543ADB2170C4743360CBF19A6B2BF1982
:103080003E043543240C3E0C36199FB24743BF190A
:10309000BCB23E0C89191F0C47437F183E043443D1
:1030A000390C77463F0C90B278432E0C80190604F9
:1030B000ADB22E43050CA0B22D18120C7A43501954
:1030C000020C80B2240CA4189AB27A431219140488
:1030D0002043120C89181B0C7B43C91830BCEF0A23
:1030E000394203D1B61940414941641E6F12BF0DE8
:1030F000E41B0BDBFF19BC4211DA24050027420850
:10310000AE417841614166463143F0BD641C05D152
:10311000401C6141CF0201D34908F4E750E75DE765
:10312000F0B40E005E400125ED072E40B446AE0A15
:10313000DF184C18F4423BD2F74241D2640D43D021
:103140007F0D38D0E41BC902DB0229432B43CF0A91
:10315000DB0A0600B61A9F4104D2641EB6197F41ED
:10316000B6185F416812800D24180018844222DAD4
:10317000E80C0021B6197F41B61A9F4102D2B61859
:103180005F413F1C40414941F4D3241C21DD24050B
:10319000B6197F41B61A9F4105D33743C607374357
:1031A0000026012F7041614166463143F0BC7047F3
:1031B000FCD1F74205D20020C14349054908F3E795
:1031C00004D00020C143F1E77F0DFAD00020614612
:1031D000ECE72442FAD1401C61410F03F6D30020F2
:1031E000E2E7012252054B18DA4201D9581570471F
:1031F0005B0D0722D2019B1A10D9FF2B1DD2DB05D4
:103200000122D2070A4013430903020D1143490A60
:10321000C200524100D9491CC81870470AD1800A1F
:103220000A0302435212921C04D9D3070B40D00563
:1032300018437047C80FC0077047C80F0002FF301F
:10324000C005704730B405004D400122D20715403B
:103250004B180418240E2ED01B0E32D0FF2C34D065
:10326000FF2B3AD0E4180002090210431143000A70
:10327000090A9446C2B24A43000AC3B24B43000A49
:103280004843110A5B181A43D2B2190A091801D42B
:103290004918641E080A7F3C23DBFE2C08DAE4058B
:1032A00009061143634699416041284330BC704789
:1032B000FF20C005F9E728001B0EFF2BF6D1D043F5
:1032C000F4E72800FF2CF1D1F9E74002F7D1FF2BFA
:1032D00001D14902F3D1E005E7E7D8054902E4D07E
:1032E000EDE743020020641CDFD15B129B1CDCD99C
:1032F000D805DAE730B405004D400122D207154069
:103300004B180418240E28D01B0E2FD0FF2C34D0BD
:10331000FF2B37D0E41A000209021043114343087F
:103320004808D10D1B1A02D2641EDB181B18DB18CB
:10333000834200D31B1A4941F9D37F3426DDFE2C8A
:1033400008DAE4054808C907194391416041284358
:1033500030BC7047FF20C005F9E728001B0E03D0E2
:10336000FF2BF5D14902F3D0D043F1E7FF2C01D177
:103370004002F9D1FF20C005E9E74002F4D1FF2B5C
:10338000F8D1F1E728004902E2D0EDE70B02002076
:103390002442DCD15B129B1CD9D9D805D7E7012286
:1033A000D20703004B402ED4431A01D2C01AC918C9
:1033B00030B44B180418240E1B0E22D0FF2C20D042
:1033C000E31A182B1DDC09021143C40D641E000210
:1033D000104394461925ED1A0A00AA40D940451811
:1033E00001D36D08A41CE405D209280A2D062A433E
:1033F0006546AA41604103181B0EFF2B01D3C00D87
:10340000C00530BC7047514001E05140CCE7431A41
:1034100003D2C01AC9185040514030B44B180902A9
:1034200011430418240E1B0E40D0FF2C3AD0250067
:103430009D410BD31ED8C50D4002401A0BD3ED059C
:103440000100400AC90591416841DAE7C50D400213
:103450004918401AD5D001214008491C0018FCD554
:103460008C4204D36D1A000AED054019C9E7E8053E
:103470001040C6E7182DC4DCAC1C0D00E140E5414E
:103480004D40012D4941C40D00021043451A01D49D
:103490006D199543641EE405280A2D069541604187
:1034A00030BC7047FF2BACD1D843AAE72442A8D147
:1034B0000020A6E7012212060118CA420AD28A4257
:1034C0000DD83822120609098918C20FD2071143F4
:1034D0004007704700D049080909014301E0C10FC6
:1034E000C90700207047F0B40125ED070F005F40C9
:1034F0004FD48B4200D1824205D9844610006246E7
:103500008C4619006346DF184C18640D7F0D3AD0C5
:10351000661C760537D0E61B352E34DCDB022B43E8
:10352000DB0A0C0DC9022943C912202E0DDB17003E
:10353000203E06D01F00F741F3405F400026012ADD
:103540007741C01871410DD217E01700F741F240E2
:103550005740F3415A40B340F3405A400026801888
:1035600059410AD3A21C52050FD0C207012F724144
:1035700017004008CB0718434908641C240542087B
:10358000AF4170416141F0BC7047641C21050020CF
:10359000F9E76B4010E06B40ABE7F742F3D1E9434A
:1035A000F1E72442EFD100200021ECE7F0B401253F
:1035B000ED070F005F40EED40C00871A9C4105D246
:1035C000C01BA141D219634169406B40AE0ADF18AC
:1035D0004C18F442E1D2640D7F0DE2D0E61B362E8A
:1035E000D1DCDB022B43DB0AA4460C0DC9022943C4
:1035F000C90A012E28DC04D1D6075208DF073A4356
:103600005B08EF0A76429041994114D039423BD190
:10361000B61940414941761C394204D1761C001844
:1036200049413942FAD0B9436746B74208D9A41B89
:1036300024052143A7E70042EAD13642E8D1A2E7B8
:10364000E40AE10700209EE7202E0BDD203E1F004C
:10365000F340F7415F40012A002257417E429841E2
:1036600091410BE01700F741F2405740F3415A40B7
:10367000B340F3405A407E42904199410A0303D23D
:10368000641EB619404149410027641E24054208C2
:10369000AE4178416141F0BC7047FEE7F4464A18FC
:1036A00005D200F00FF801D580174008604700F000
:1036B00009F80121C907884200D908004042604743
:1036C0004A1812D2400DC90208430121C907084314
:1036D000520D40210901521A521C06D452421F3287
:1036E00001D4D0407047C017704700207047FEE7F4
:1036F0009D21020008D5F446524200F005F801224F
:10370000D2071043604700000AD002D4491E921825
:10371000FCD5C905100A1206524100D3012A4841BE
:103720007047FEE7F8B50CB406000F000120002436
:1037300000253448007E012801D1022038E0012014
:1037400030490876284800F05FF8C0B200282BD135
:10375000012E01D1012504E0022E01D1022500E055
:103760000425002400E0641C21002A00C9B2D2B262
:10377000914219D2684603C81022624302F076FDD6
:10378000010089B2E4B202206043381800F02EF83C
:10379000154800F039F83249096801229143304A4E
:1037A0001160C0B20028DED00021164A1176C0B2E6
:1037B000FEBD00B500202A49096809060AD53B4923
:1037C0003B4A11603B493A4A11602549096809069C
:1037D00000D50120C0B200BD21480068802101430E
:1037E0001F4801600020704750C300000022054BB5
:1037F000DA611B4A126801231343194A13600180DE
:10380000704700009807002038B5040002F026FD3C
:10381000050024480068C0070CD50020C04384423E
:10382000F7D0002C04D002F019FD401B8442F0D2E6
:10383000032013E01B480068800602D520201949A8
:10384000086018480068C00603D41648006840079E
:1038500003D500F007F8012000E0002032BD000091
:103860001020024000B500200E490968C90608D59D
:103870000D49C96902220A430B49CA61010010209F
:10388000084308490968490708D50749C969012259
:103890000A430549CA610100042008430149086040
:1038A00000BD00000C20024098070020230167455E
:1038B00004200240AB89EFCD0021084AD1610849BC
:1038C000096802220A4306490A600649086004485A
:1038D00000684021014302480160704798070020BA
:1038E000102002401420024080B5064800681021D4
:1038F000014304480160002002F0C8FC01F078FA9E
:10390000002002BD0020024070B582B00400002CEF
:1039100001D1012074E22078C00775D5AE48006857
:103920000C21014004290ED0AB4800680C21014055
:10393000082911D1A8480068C0214902014080200F
:103940004002814208D1BC48006880035CD56068B1
:10395000002859D1012053E26068012807D1B648F8
:103960000068802149020143B34801602DE060688E
:1039700000280CD1B0480068B0490140AE48016051
:10398000AD480068AE490140AB4801601DE0606889
:1039900005280ED1A84800688021C9020143A64825
:1039A0000160A5480068802149020143A2480160E6
:1039B0000BE0A1480068A14901409F4801609E4872
:1039C00000689F4901409C480160606800280DD054
:1039D00002F044FC050098480068800314D402F00B
:1039E0003DFC401B6528F6D3032009E202F036FCBB
:1039F000050091480068800306D502F02FFC401BAB
:103A00006528F6D30320FBE12078800726D572488D
:103A100000680C21014000290ED06F4800680C217D
:103A20000140082934D16C480068C0214902014096
:103A30008020000281422BD17F480068800704D596
:103A4000E068012801D00120DAE17B480068F82114
:103A500088432169C9000143774801602078000745
:103A60005FD5E069002848D0B848006801210143CB
:103A7000B648016002F0F2FB0500B4480068800718
:103A80004FD402F0EBFB401B0328F6D30320B7E131
:103A9000E06800281DD0684800680121014366489D
:103AA000016002F0DBFB050063480068800706D474
:103AB00002F0D4FB401B0328F6D30320A0E15E48AC
:103AC0000068F82188432169C90001435A48016010
:103AD000C4E759480068012188435749086002F04B
:103AE000BDFB0500544800688007B7D502F0B6FB5F
:103AF000401B0328F6D3032082E19448006801218B
:103B000088439249086002F0A9FB05008F480068CD
:103B1000800706D502F0A2FB401B0328F6D3032042
:103B20006EE12078400700D495E00026B548006893
:103B3000C0000ED4B3480068802149050143B14854
:103B40000160B04800688021490508400090009855
:103B50000126AD480068C00514D4AB480068802138
:103B600049000143A848016002F078FB0500A6481F
:103B70000068C00506D402F071FB401B6528F6D32F
:103B800003203DE1A068012806D1A048006801217A
:103B900001439E4801602DE0A06800280CD19B489D
:103BA0000068012188439949086098480068042109
:103BB0008843964908601DE0A06805280ED1934807
:103BC0000068042101439148016090480068012188
:103BD00001438E4801600DE0041002408B480068EC
:103BE0000121884389490860884800680421884386
:103BF00086490860A06800280ED002F02FFB05005F
:103C00008248006880071DD402F028FB401B8049D1
:103C10008842F5D30320F3E002F020FB05007B4847
:103C2000006880070ED502F019FB401B78498842D6
:103C3000F5D30320E4E000BF00100240FFFFFEFFC9
:103C4000FFFFFBFFF6B2012E05D16E4800687149F7
:103C500001406C4801602078C00625D560690128C4
:103C600044D16D480068042101436B4801606A48F3
:103C70000068012101436848016002F0EFFA050085
:103C800065480068800706D402F0E8FA401B032864
:103C9000F6D30320B4E060480068F8218843A169A6
:103CA000C90001435C480160206A002800D1A6E0F9
:103CB000A84800680C210140082900D183E0206A4F
:103CC00002286CD1A4480068A4490140A2480160C0
:103CD00002F0C4FA0500A0480068800138D502F05F
:103CE000BDFA401B0328F6D3032089E06069042154
:103CF000C94388420FD14848006804218843464997
:103D0000086045480068F8218843A169C90001435B
:103D100041480160C8E740480068042101433E482B
:103D200001603D480068012188433B49086002F07A
:103D300095FA0500384800688007B5D502F08EFA7C
:103D4000401B0328F6D303205AE000BF2410024092
:103D5000A34800680F218843E16A0143A04801603D
:103D60007C4800687E490140A06A0843616A0143BB
:103D7000784801607848006880214904014376480A
:103D8000016002F06BFA050073480068800136D4C8
:103D900002F064FA401B0328F6D3032030E06E489B
:103DA00000686E4901406C48016002F057FA050056
:103DB00069480068800122D502F050FA401B0328B0
:103DC000F6D303201CE0206A012801D1012017E06E
:103DD0006048006882490968C02252020240636A52
:103DE0009A420AD10907090FE26A914205D1F021EE
:103DF00089030140A06A814201D0012000E0002037
:103E000076BD00001C1002400070004020100240EF
:103E100089130000FFFFFFEF3410024070B505006A
:103E20000C00002D01D1012093E0744800680100CE
:103E3000C907C90FA1420FD2704800680121884309
:103E400020436E4908606D4800680100C907C90F2A
:103E5000A14201D001207CE02878800711D5287884
:103E6000400706D53B480068E021C90001433948B6
:103E7000016038480068F0218843A968014335484B
:103E800001602878C00732D56868012805D132481A
:103E90000068800310D401205BE06868022805D127
:103EA0002D480068800107D4012052E02A480068AC
:103EB000800701D401204CE0264800680321884394
:103EC000696801432348016002F0C8F906002148EF
:103ED00000680C21014068688000814207D002F030
:103EE000BDF9801B46498842F1D3032031E04348A5
:103EF00000680100C907C90F8C420FD23F48006813
:103F00000121884320433D4908603C480068010086
:103F1000C907C90FA14201D001201AE02878400743
:103F200007D50C48006837490140E868084309494B
:103F3000086000F017F83449064A1268120912079F
:103F4000120F895CC84031490860002002F09EF9D8
:103F5000002070BD0410024000100240FFFFFFFE71
:103F6000FF7FC2FF10B588B004A82A49102202F0D2
:103F7000C9F968462849102202F0C4F9002000213E
:103F8000002000240020224800680C210140042960
:103F900002D0082902D01DE020481CE004A9820CB0
:103FA0001207120F8C5C69460D4A12681207120F35
:103FB000895CC0225202024080204002824204D129
:103FC0001648FEF70CFB604303E01448FEF707FBBE
:103FD000604300E0114808B010BD0C48006870470D
:103FE0002C10024080B5FFF7F8FF0D49084A12680F
:103FF000120A5207520F895CC84002BD00200240DD
:1040000089130000FFF8FFFFF86800080400002093
:1040100004100240D8680008E868000800127A001E
:104020002469000800B540B2002805D40121C0066B
:10403000C00E81403548016000BDF0B540B2002897
:104040001BD4334A40B2830804246343D258FF236D
:104050008407A40F08256C43A3409A438901C9B281
:1040600083079B0F0824634399401143284A40B2B9
:10407000800804235843115020E0264B40B2020729
:10408000120F083A920804246243224C40B20507FA
:104090002D0F083DAD08042675436459FF2586079A
:1040A000B60F08277E43B540AC438901C9B28007EB
:1040B000800F08256843814021439950F0BD80B5A9
:1040C000411E80225204914201D301200EE0401E85
:1040D0001149086003210020C043FFF7AEFF002014
:1040E0000E49086007200E490860002002BD80B517
:1040F00040B2FFF7A2FF01BD80B540B2FFF792FFCB
:1041000001BD80B5FFF7DBFF02BD000000E100E06C
:1041100000E400E01CED00E014E000E018E000E046
:1041200010E000E080B5FCF749FF01BD70B5040068
:1041300000250026002C01D10120D2E0A06B002830
:1041400007D10020E063002034216054200000F0FB
:1041500074FEA06BC00600D5BCE0EDB2002D00D00F
:10416000B8E020688068400700D5B3E0A06B5D49E7
:10417000014002200843A063206880688007800F08
:10418000012809D120680068C00703D42068C068EE
:10419000000401D5012000E0002000280FD1206894
:1041A000C06818218843A16801432068C160206865
:1041B000006980008008616801432068016120680F
:1041C000C068494901402068C160A06A012802D046
:1041D0008020400100E000202169022901D1042152
:1041E00000E00021227E9303627ED2031A43A37E65
:1041F0005B0313431843E268024311432420205C0D
:104200004000084330430600E07E01280FD1A07E25
:10421000002804D1300080267602064307E0A06B18
:1042200020210143A163E06B01210143E163E069C7
:10423000FF21C231884204D03100E069266A06437A
:104240000E432068C06830432168C860E06A80215E
:104250004905884214D0E06A012811D0E06A02289A
:104260000ED0E06A03280BD0E06A042808D0E06A88
:10427000052805D0E06A062802D0E06A07280ED19A
:1042800020684069072188432168486120684069A7
:104290002C21615C4907490F014320684161206876
:1042A000C06812490140B14208D10020E063A06B10
:1042B0000221884301210143A16310E0A06B022188
:1042C000884310210143A163E06B01210143E163B5
:1042D000012504E0A06B10210143A1630125280002
:1042E000C0B270BDFFFEFFFF1902FEFFE7FF3F8374
:1042F000F8B504000F00160000252068806840070C
:1043000045D43420205C012801D1022042E0012064
:1043100034216054607E012803D0200000F0F6F8BC
:104320000500EDB2002D33D1A06B1B490140802068
:1043300040000843A0630020E06300203421605463
:104340001648216B88621648216BC8621548216B9C
:1043500008631C2021680860206840681021014320
:10436000206841602068C068012101432068C16065
:1043700033003A00206801004031206B01F050FE0C
:1043800020688068042101432068816000E00225E4
:104390002800C0B2F2BD0000FEF1FFFFC5450008D5
:1043A000454600084F46000838B5040000250020A7
:1043B0000090E06A80225205904213D0E06A012802
:1043C00010D0E06A02280DD0E06A03280AD0E06A23
:1043D000042807D0E06A052804D0E06A062801D046
:1043E000E06A07283420205C012801D102208CE0FB
:1043F00001203422A0542068806840077BD448689C
:104400006C4A90425BD02068806A01220B689A4017
:10441000024320688262E06A80225205904229D0DD
:10442000E06A012826D0E06A022823D0E06A032847
:1044300020D0E06A04281DD0E06A05281AD0E06A7E
:10444000062817D0E06A072814D0886822685269C5
:104450005207520F90420DD02068406907229043C6
:1044600022685061206840690A7A5207520F02435D
:10447000206842610868102802D0086811283FD1DE
:104480000868102802D18020000401E08020C003C9
:10449000494A12681043484A1060086810282FD112
:1044A000464800684649FEF79AF80A2148430090BA
:1044B0000098002824D00098401E0090F8E720685B
:1044C000806A01220B689A409043226890620868D3
:1044D000102802D00868112812D10868102802D1CB
:1044E0008020000401E08020C00333490968814333
:1044F0003148016004E0A06B20210143A163012544
:104500000020342160542800C0B232BD38B5040008
:10451000002500200090206880688007800F012817
:1045200009D120680068C00703D42068C06800046F
:1045300001D5012000E00020002838D120688068E3
:104540003E490140002909D0A06B10210143A1631D
:10455000E06B01210143E163012029E020688068CC
:104560000121014320688160144800681449FEF766
:1045700036F8009002E00098401E00900098002855
:10458000F9D101F06BFE050020680068C0070ED469
:1045900001F064FE401B0328F6D3A06B10210143F9
:1045A000A163E06B01210143E163012000E00020F1
:1045B00032BD000001100000082701400400002067
:1045C00040420F0080B5416A8A6B50231340002B94
:1045D0002FD1886B8022920002438A630868C068EA
:1045E000C02212010240002A1FD1887E00281CD15F
:1045F00008680068000718D50868806840070CD470
:10460000086840680C2290430A685060886B0C4A26
:10461000024001201043886307E0886B2022024398
:104620008A63C86B01220243CA63080001F084FE5A
:1046300002E0096B096B884701BD0000170000808C
:10464000FFFEFFFF80B5406A01F077FE01BD80B537
:10465000406A816B40220A438263C16B04220A4391
:10466000C26301F06BFE01BD10B5D2484421405E2B
:1046700000B2D0494022895E5039884209DBCD48DA
:104680004021405E00B25030CA494422895E8842CF
:1046900007DA0020C8490880C8480088C84908804F
:1046A0002FE0C4484021405E00B25030C14944224E
:1046B000895E401A00280AD4BE484021405E00B2FC
:1046C0005030BC494422895E401A422815DBB94863
:1046D0004421405E00B2B7494022895E401A503002
:1046E00000280ED4B3484421405E00B2B1494022B4
:1046F000895E401A5030422803DAB0480088B04939
:104700000880C248407B002800D162E10020BF49F8
:104710004873A848808DFEF731FCBDA20CCAFEF795
:104720003DFC0022BC4BFEF7FBFCFEF75AFDA14905
:104730004863A048416BBA48FEF784FDA649FEF7DE
:10474000D9FD9C4988639B48816B9A48406BFEF772
:1047500026FE9849C8639748C06BFEF7ABFE02007F
:104760000B009EA003C8FEF7DBFC00229D4BFEF76A
:10477000BAFE00229C4BFEF711FCFEF78FFF8F491B
:1047800008808C48406B994901F0DAFD4FD8994870
:10479000007805284BD103209749087085484221AD
:1047A000405E84494422895E00B2884206DA83482A
:1047B00000889349088000207F4908807E4800884F
:1047C0003C2814DB00207C4908808D4800884B3849
:1047D0008B49088077484421405E76494222895EB1
:1047E00000B2884203DB754800888549088071481B
:1047F0004421405E00B2FEF77BFF04006D48422179
:10480000405EFEF775FF01002000FEF773FD694969
:1048100008626848006A7B4901F092FD03D80220D3
:104820007E490870D5E003207C490870D1E06148DA
:10483000406B6F4901F084FD5ED86E480078052812
:104840005AD15C484221405E5A494422895E00B2F6
:10485000884206DA5948008869490880002056498C
:104860000880554800883C2814DB00205249088005
:10487000634800884B38624908804E484421405EB6
:104880004C494222895E00B2884203DB4B480088D3
:104890005B49088047484421405E00B2FEF728FF8C
:1048A000040044484221405EFEF722FF0100200040
:1048B000FEF720FD3F4908623E48006A514901F079
:1048C0003FFD03D801205549087082E04A4800782E
:1048D00001280DD13748006A4B4901F045FD07D248
:1048E0003C480078012803D003204C49087070E050
:1048F00002204A4908706CE001203F4908700020FE
:104900003E4908602B484221405E2A494422895E84
:1049100000B2884206DA2948008839490880002018
:1049200025490880244800883C2814DB00202249BF
:104930000880334800884B38314908801D4844219D
:10494000405E1C494222895E00B2884203DB1B485C
:1049500000882B49088017484421405E00B2FEF7CA
:10496000C7FE040013484221405EFEF7C1FE01006D
:104970002000FEF7BFFC0F4908620E48006A21497B
:1049800001F0DEFC03D80120244908701DE009482D
:10499000006A1D4901F0D4FC03D802201F490870A9
:1049A00013E00C48007801280CD102201B49087044
:1049B0000BE000BF6405002048080020A805002087
:1049C000A405002003201549087014480078014907
:1049D000087010BD0E0000200080D44521B0726820
:1049E00091ED13400000F0BF0050C4400100404072
:1049F00034333340560800205208002018080020A5
:104A0000A6050020A4707D3FC3F5683FB8070020CD
:104A10006666666666660A400000B040550800207B
:104A20000000614580B5834800680A280ED3002045
:104A30008049086000208049087001217F48FDF707
:104A4000ADFA002802D001207B49087001BD00B5F5
:104A500079488078002806D0022831D010D3042865
:104A600059D050D360E07448007800285FD000200F
:104A70007349086070488078401C6F49887056E020
:104A80006D480078002803D100206B4988704EE003
:104A90006B48006864284AD30020694908600220F6
:104AA0006549887067480078002808D1012062496C
:104AB000487000206049C87004205F49887036E063
:104AC0005D48007800280CD100205B4988700120E7
:104AD0005949487000205849C8700020584908605A
:104AE00025E0574800685849884220D3002054499F
:104AF000086001205049C87001204F4948700320C8
:104B00004D49887013E04C48007800280FD10020F0
:104B1000494988700BE048480078002803D10020FC
:104B20004549887003E002E000204349887000BDD9
:104B300080B50120454948704248007800282CD0B3
:104B40003D48C078012828D140480079002810D07D
:104B50003E48807800280CD13C48C07B0121414070
:104B60003A48C17305203A49087001203749087452
:104B700053E03648007901214140344801713348FF
:104B8000C078012141403148C1703048C07B0028C5
:104B900002D001202D4908743FE02A480078012105
:104BA0004140284801702748007800280FD0012094
:104BB0002649087101202549C87001202349C87180
:104BC0000120224948710420224908701EE0214832
:104BD0000078052803D01F480078062802D101205C
:104BE0001A49487200201B490870FBF769FA002037
:104BF0001649087000201549487100201349C871F2
:104C000000201249087100201049C8700F48C07B6D
:104C1000002802D001200D49087401BD80B5064866
:104C20004078002804D0002003494870FFF780FF37
:104C300001BD0000E0070020CC0700200004004870
:104C4000E407002053080020540B0000B8070020A0
:104C5000570800205808002080B5FFF7E3FEFFF753
:104C6000F6FEFFF7DBFF01BD130030B414001500A2
:104C7000103902D310393CC0FCD2490700D30CC014
:104C800000D504C0890002D30280801C002900D511
:104C9000027030BC704700000022E5E770B582B0BA
:104CA0000400002600202068C0036ED50025484877
:104CB0000068C0000ED446480068802149050143C1
:104CC000434801604248006880214905084000903F
:104CD000009801253F480068C00514D43D4800688D
:104CE0008021490001433B48016001F0B7FA06000A
:104CF00038480068C00506D401F0B0FA801B65286A
:104D0000F6D3032063E034480168C02080000840E7
:104D1000002829D06168C02292000A40904223D026
:104D20002D4801682D4808402B490968802252020D
:104D30000A4329490A6028490968294A0A4026493C
:104D40000A6025490860C0070ED501F087FA060001
:104D500021480068800707D401F080FA801B2149B0
:104D60008842F5D3032032E01B4800681B4901400C
:104D70006068084318490860EDB2012D05D1144858
:104D8000006819490140124801602078C00707D522
:104D90001648006803218843A16801431348016055
:104DA0002078800607D51148006810218843E16803
:104DB00001430E4801602068800307D50B48006856
:104DC000802188432169014308480160002076BDA5
:104DD0001C1002400070004020100240FFFCFFFF4A
:104DE000FFFFFEFF89130000FFFFFFEF30100240BE
:104DF00080B565480068012101436348016062484D
:104E000000680100C907C90F00910098AC4800680C
:104E1000802149050143AA480160A9480068802112
:104E20004905084000900098002200210420FFF767
:104E30005EF90420FFF760F901BD10B586B00400EB
:104E400001A81421FFF728FF2068504988424BD160
:104E50004D4800688021890001434B4801604A4861
:104E60000068802189000840009000984848006848
:104E7000802189020143464801604548006880213D
:104E800089020840009000980420019003200290BD
:104E90000020039001A99020C005FCF793FF8948EA
:104EA0008949086000208849486000208649886058
:104EB00080208549C86080204000834908618020A7
:104EC000C0008149486120207F49886100207E49D7
:104ED000C8617D4801F074F8002801D0FCF76AFF32
:104EE000794820637848446206B010BD80B50168F7
:104EF000774A914214D172480068102101437048EA
:104F000001606F480068102108400090009800225E
:104F100000211120FFF7EBF81120FFF7EDF832E048
:104F200001686C4A914214D1654800682021014310
:104F300063480160624800682021084000900098A2
:104F4000002200211220FFF7D2F81220FFF7D4F838
:104F500019E000686049884215D15C4800688021EA
:104F6000890201435948016058480068802189023C
:104F7000084000900098002200211520FFF7B7F8A4
:104F80001520FFF7B9F801BD1810024000240140B8
:104F90001410024010B586B0040001A81421FFF7D8
:104FA0007BFE20684D49884200D087E04748006872
:104FB0008021C901014345480160444800688021BF
:104FC000C901084000900098454800688021890286
:104FD000014343480160424800688021890208403B
:104FE00000900098C020C000019002200290002094
:104FF0000390032004900120059001A99020C00592
:10500000FCF7E0FE37483849086000203649486020
:1050100000203549886080203349C860002032492B
:10502000086100203049486100202F498861002034
:105030002D49C8612C4800F0C3FF002801D0FCF7BF
:10504000B9FE2A4800688021C90001432748016051
:1050500025482067244844622548264908601020D6
:105060002449486000202349886080202149C86085
:1050700000202049086100201E49486100201D4988
:10508000886100201B49C8611A4800F099FF002878
:1050900001D0FCF78FFE154800688021890001438C
:1050A000124801601348E066124844620022002161
:1050B0001B20FFF71CF81B20FFF71EF806B010BDE1
:1050C0001C100240080002408C060020181002400C
:1050D000001000400014004000440140003801402E
:1050E0001410024058000240D00600200000014089
:1050F0004400024014070020704770477047704713
:10510000704770477047FEE7F1B5A4B014001F0068
:1051100014ADA9600020E8620AE0A868249A9047CC
:10512000A860002800D1CFE2E86A401CE862641C55
:105130002178080001D1E86AC8E22529EDD10020D4
:105140006861A861E86128626862A86202E0010003
:1051500001200843641C21782029F8D023290ED08F
:105160002B2904D02D2907D030290BD00DE00100C8
:105170000220084380B2EDE701000420F9E70100B6
:105180000820F6E701001020F3E72A290FD139683B
:1051900039600A68091D39606A63002A05D55142E1
:1051A000696301000420084380B2641C12E00021FE
:1051B00069630AE06A6B794B9A4205D093009A18AA
:1051C0005200511830396963641C21780A00303A62
:1051D0000A2AEFD321782E2903D00021C94329635D
:1051E0001EE0641C21782A2907D1396839600A68D1
:1051F000091D39602A63641C12E0002129630AE05A
:105200002A6B664B9A4205D093009A1852005118A7
:1052100030392963641C21780A00303A0A2AEFD316
:10522000288726783100044878440C3001F0AFF824
:10523000002803D0641C02E07016000000263A200B
:105240002E54285C682804D12178682901D1622075
:1052500005E06C2806D120786C2803D171203A2112
:105260006854641C05A828612678641C3000253821
:105270002AD01C3800D1D8E0001F022800D8D4E082
:10528000133800D1F6E0093800D1CEE0801E00D1FD
:105290005AE1401E00D134E1401E022800D8C4E08B
:1052A000001F00D12DE1401F00D190E0401E00D131
:1052B000E0E0401E27D0C01E0BD0801E00D1D9E0F8
:1052C000C01E00D1D6E049E12520694608750120BD
:1052D0004EE1386838600168001D3860E9602E6B67
:1052E000002E03D50846FDF7EDF90AE03200002153
:1052F000E86801F056F8002802D0E968401A00E09A
:105300003000A86135E1386838600268001D3860F7
:105310000020C0430021104014AA03C205A8E86081
:10532000286900903C2214A803C802AB03C302A85A
:1053300003C8002904D1002802D1286B00281DD001
:10534000521E02A803C80007000F3030C0B23A282E
:1053500000DB27300099885402A803C800090B0716
:105360001843090902AB03C302A803C801D10028EE
:1053700004D0E868009989188842E1D33C20801A5B
:10538000A86100998918E960296B88420ADA081A2D
:105390002862288F024901402987EAE0FFFFFF7F4A
:1053A000EFFF0000002900D4E3E03821695C1422FB
:1053B0000A40102A00D0DCE0696B6A69891A2A6AFF
:1053C000891A0A1A012A00DAD3E02A62D1E03A20C7
:1053D000285C622819D0682806D06A280CD06C286E
:1053E0001BD0712808D018E0386838600168001DAB
:1053F0003860E86A0880BCE0386838600268001DE0
:105400003860E86AC11703C2B3E0386838600168E1
:10541000001D3860E86A0870ABE0386838600168E1
:10542000001D3860E86A0860A3E03A68D21D0720D2
:1054300082433A6003CA3A6014AA03C2002902D523
:1054400068692D2109E0288F810702D568692B2121
:1054500003E0C00705D56869202105AA1154401C46
:10546000686105A869694018E860310014A800F077
:10547000FBF97EE03A20285C6C280BD0712801D023
:105480006A2807D13A68D21D072082433A6003CACE
:105490003A6005E0396839600868091D3960002103
:1054A00014AA03C23A20285C682803D114A803C8B0
:1054B00080B20BE0622803D114A803C8C0B205E093
:1054C000742801D07A2804D114A803C8002114AA92
:1054D00003C23820285C00072DD514A803C8002972
:1054E00001D1002827D020203043782823D16869B3
:1054F000302105AA1154401C411C696105A90E54B4
:1055000019E039003A20285C00F0E2F814AA03C23E
:10551000002902DA68692D2109E0288F810702D568
:1055200068692B2103E0C00705D56869202105AA19
:105530001154401C686105A869694018E860310091
:1055400014A800F0F9F814E00120686138683860A8
:105550000168001D3860684601750AE0252069462B
:10556000087501206861300003D005A8467002204C
:105570006861686B6969401A296A401AA969401A0A
:10558000696A401AE969401AA96A401A04903820E9
:10559000285C400711D4202069460871049801282E
:1055A0000BDB049E012301AA14A9249800F0EDFC52
:1055B000002800D088E0761EF4D1686905AE002886
:1055C0000FD000903178A868249A9047A8600028EE
:1055D0007AD0E86A401CE862761C0098401E009071
:1055E000F0D13020694608712E6A012E09DB0123B3
:1055F00001AA14A9249800F0C8FC002864D1761EE2
:10560000F5D1EE68A86900280FD000903178A8681D
:10561000249A9047A860002856D0E86A401CE862A7
:10562000761C0098401E0090F0D130206946087129
:105630006E6A012E09DB012301AA14A9249800F047
:10564000A4FC002840D1761EF5D1E868A969461867
:10565000E86900280FD000903178A868249A904714
:10566000A860002830D0E86A401CE862761C0098E8
:10567000401E0090F0D1302069460871AE6A012EBC
:1056800009DB012301AA14A9249800F07EFC00285C
:105690001AD1761EF5D13820285C400700D447E5A2
:1056A0002020694608710498012800DA40E5049E2C
:1056B000012301AA14A9249800F067FC002803D153
:1056C000761E00D134E5F3E70020C04325B0F0BDDD
:1056D0000A00622822D0682819D06A2808D06C28CD
:1056E00023D0712804D074281FD07A2808D01CE059
:1056F0001368DB1D07208343136003CB13607047DF
:10570000116811600868091D116000217047116857
:1057100011600868091D116000B20BE0116811608A
:105720000868091D116040B204E011681160086842
:10573000091D1160C1177047F3B583B0006900906F
:105740006846027C6F2A01D1082406E0202111431B
:10575000782901D00A2400E010243C25039803C8CE
:1057600006000F00642A01D0692A07D1002905DA52
:1057700000200021801BB94106000F00002F10D12E
:10578000002E0ED10398006B00280AD1082C3AD1C4
:1057900003983821405C000735D53B25302000991F
:1057A00030E06D1E0195300039002200E31700F053
:1057B00004FE3032D2B23A2A03DB6846007C51380C
:1057C000121800984255300039002200E31700F00B
:1057D000F4FD06000F0001D1002E05D00398C0682B
:1057E000009949198842DCD3082C0CD10398382140
:1057F000405C000707D50098405D302803D06D1E3F
:105800003020009948553C20401B0399886100993D
:105810004919039AD1600399096B884209DA081A79
:10582000039908620398008F0E490140039801878D
:1058300015E0002913D503993822895C14220A4007
:10584000102A0CD10399496B039A5269891A039A59
:10585000126A891A0D1A012D01DB0398056205B041
:10586000F0BD0000EFFF0000F3B591B006AA03C839
:1058700002AB03C312A800782021014300916129E3
:105880000BD01198006B002801D5062003E004D14D
:10589000672902D1012011990863119840684100DD
:1058A000490DA64B994225D1000310D111980068EB
:1058B00000280CD103201199886112A80078613862
:1058C0001A283AD31F4878447A3000900BE003201E
:1058D0001199886112A8007861381A2829D31A48CA
:1058E000784464300090032200991198C06800F059
:1058F000F5FCE9E1012919DB914B0340914818437C
:10590000119B586090480D1A0026F64300986128B4
:1059100027D11198C06830210170811C119BD9607A
:1059200012A90978612915D1782114E000260025F3
:10593000ECE7064878441430D4E705487844103042
:10594000C3E700BF780F00006C0F0000640F000079
:10595000680F00005821417011984069801C11990E
:105960004861002E03D1002468468680A3E1009898
:10597000612800D09EE01198046B002C01D52124F1
:1059800000E0641C24B2601C00901198C0C802A8FA
:1059900003C80022002300F045FD02D2802000064B
:1059A000474002A8C0C0281F6946888000260E769E
:1059B00006A8471C0098012835DB02A803C800226E
:1059C00080235B0300F047FD2DD81C2102A800F0C6
:1059D0005BFD02A803C8FDF761FE05000098C01F2B
:1059E000009001280ADB2800FDF7BEFA02000B0038
:1059F00002A803C8FDF7DAFD02AA03C2F81D0721B9
:105A000004E0401E2A07120F02702D11012D01DB48
:105A1000491EF6D5491E02D4401E0670FAE7C71D7E
:105A200000980128C9DA06A8401C391A06A8421CA9
:105A3000A14200DA0C0024B2200032D4884205DAF8
:105A400006A909184978082900DB0F2606A90918B4
:105A500001E0641E491E401E0B78B342F9D00F2EA0
:105A600004D106A909184B785B1C4B70002806D599
:105A700006AA641C019800B2001D6946888024B201
:105A8000601E0ED411180B783033DBB23A2B03DBD7
:105A900012AD2D783A3D5B190B70401E491E00284F
:105AA000F1D51198006B002800D404E1601E119913
:105AB000086300E102A803C80022002300F0B2FC42
:105AC00006D202A803C880221206514002AA03C2CD
:105AD0002DB27E4868437E49FCF77EFD694688808A
