:020000040800F2
:10000000180400206D550008955300089953000806
:1000100000000000000000000000000000000000E0
:100020000000000000000000000000009D530008D8
:1000300000000000000000009F530008A1530008CA
:10004000EF1B00080000000087240008EF440008B0
:10005000AD5300080748000827480008574B000820
:1000600000000000AF530008CB500008B95300084F
:1000700007510008E3520008335300080000000055
:1000800003550008C9530008D35300080F55000852
:1000900039550008DD5300089155000893550008B4
:1000A000955500089755000899550008E753000832
:1000B0009B5500089D550008000000009F55000852
:1000C000002014490870002012494870002011498E
:1000D000887000200F49C870704780B50022A321A6
:1000E0009020C00501F07BFE00220B490B4801F077
:1000F00076FE01BD80B50022812109029020C00555
:1001000001F06DFE002280210902044801F067FE23
:1001100001BD000054070020027A000000040048DE
:1001200080B598480078052803D0964800780628BE
:1001300002D1FFF7D2FFE2E19348C078002800D156
:1001400019E192480078002800D114E18E48C07966
:10015000002804D18C480078002800D00BE18A48A0
:10016000007B002800D106E1CF48C0780A2817DAC2
:10017000012283219020C00501F031FE0122CB49EC
:10018000CB4801F02CFE002220219020C00501F078
:1001900026FE00228421C901C54801F020FEAEE1FF
:1001A000C148C078142817DA012282219020C005A6
:1001B00001F015FE0122BD49BD4801F010FE0022EC
:1001C00021219020C00501F00AFE00228421C901EE
:1001D000B74801F004FE92E1B348C0781E2817DA50
:1001E000012280219020C00501F0F9FD0122AF49D4
:1001F000AF4801F0F4FD002223219020C00501F05A
:10020000EEFD00228421C901A94801F0E8FD76E154
:10021000A548C078282811DA0122A449A44801F091
:10022000DEFD0022A3219020C00501F0D8FD0022B0
:100230008421C9019E4801F0D2FD60E19A48C0784E
:10024000322811DA0122E0218901994801F0C7FD25
:100250000022A3219020C00501F0C1FD0022A84981
:10026000934801F0BCFD4AE18F48C0783C2811DA80
:100270000122C02189018E4801F0B1FD0022A32195
:100280009020C00501F0ABFD00229E49884801F096
:10029000A6FD34E18448C078462811DA0122802185
:1002A0008901834801F09BFD0022A3219020C00515
:1002B00001F095FD002294497D4801F090FD1EE17A
:1002C0007948C078502817DA012220219020C005F3
:1002D00001F085FD01228021C901754801F07FFDF3
:1002E000002283219020C00501F079FD002287497A
:1002F0006F4801F074FD02E16B48C0785A2811DAAA
:10030000012220219020C00501F069FD00228321F7
:100310009020C00501F063FD00227D49644801F092
:100320005EFDECE00022A3219020C00501F057FD06
:10033000002277495E4801F052FDFFF7C1FE754883
:100340000068FA2806D2012280218900584801F06D
:1003500046FDD4E0002280218900554801F03FFD90
:100360006C480068FF21F631884200D2C7E00020C7
:1003700068490860C3E00448007B002808D1FFF703
:10038000ACFEBCE096070020F0060020910700209C
:100390006148007900281AD160480078002816D0FA
:1003A0004148C07850380A2811D2012220219020DB
:1003B000C00501F014FD002283219020C00501F04A
:1003C0000EFD002252493A4801F009FD97E05248DB
:1003D000007900282FD15148007800282BD03248CE
:1003E000C0785A2827D10022A3219020C00501F00F
:1003F000F6FC002246492E4801F0F1FCFFF760FEB2
:1004000044480068FA2806D2012280218900284841
:1004100001F0E5FC73E0002280218900244801F00E
:10042000DEFC3C480068FF21F631884267D300209B
:100430003849086063E03948007800283AD03648E7
:100440000079002836D11848C0785A2832D132486D
:10045000807800282ED00022A3219020C00501F032
:10046000BEFC00222A49124801F0B9FCFFF728FE21
:1004700028480068FA2806D20122802189000C4809
:1004800001F0ADFC3BE0002280218900084801F02A
:10049000A6FC20480068FF21F63188422FD30020B7
:1004A0001C4908602BE000BF5807002002380000FC
:1004B000000400481948007800281ED0164800792A
:1004C00000281AD18D48C07850380A2815D2124811
:1004D0008078002811D0012220219020C00501F051
:1004E0007EFC002283219020C00501F078FC0022D0
:1004F0000749A94801F073FC01E0FFF7EEFD01BDDB
:1005000002420000024A0000025A0000023A0000C3
:10051000027A000040070020F0060020910700202A
:1005200080B59E484078002800D1D9E09C480078EA
:10053000002813D0022828D019D304284CD03AD34D
:10054000062878D05CD3082800D194E000D282E05D
:100550000A2800D1AFE000D29DE0BDE0914801F053
:1005600092FC8F480078401C8D490870C4E08E488A
:100570000068B42800D2BFE08A4801F0B5FC884882
:100580000078401C86490870B6E08448C07900288D
:100590000AD186480078002806D0032080490870D8
:1005A000002081490860A7E000207D4908700020F4
:1005B0007A494870A0E07C480068B42800D29BE0EB
:1005C000784801F060FC76480078401C7449087057
:1005D0000020754908608FE073480068B42800D295
:1005E0008AE0704801F080FC6D480078401C6C493E
:1005F000087000206A4908700020684948707BE054
:10060000684801F040FC6548C07B002803D0062004
:10061000634908700EE064480068FA214900884286
:100620006AD3604801F060FC00205D49087000203A
:100630005A49487060E05C480068B4285CD3594867
:1006400001F052FC00205849086055480078401CD1
:100650005349087050E054480068B4284CD35148BE
:1006600001F011FC0020504908604D480078401C02
:100670004B49087040E04C480068B4283CD34948D6
:1006800001F032FC00204849086045480078401CD1
:100690004349087030E044480068B4282CD34148EE
:1006A00001F0F1FB0020404908603D480078401C03
:1006B0003B49087020E03C480068B4281CD3394806
:1006C00001F012FC0020364908700020364908600D
:1006D0000020324948700FE00020314908700BE0DB
:1006E00000203149086000202D4908700022802137
:1006F000C900964801F073FB01BD000058070020B7
:1007000080B526488078002821D00421224801F0B5
:100710005BFB002817D08E480068C9283AD3002018
:100720001E49887021480078002802D001201B490A
:10073000487003208749087000201849487200203B
:100740001649087326E000208149086022E0042150
:10075000114801F039FB002816D17D480068FF21BF
:10076000F631884216D301200C49487201200B490A
:1007700088700E480078002802D001200749487090
:1007800000200649087005E000207149086001203A
:100790000249087001BD000000040048F006002076
:1007A00095070020EC04002020070020910700207E
:1007B00080B5A348007800280BD16648007805284A
:1007C00007D064480078062803D09E48C0785A288D
:1007D00009DB002240219020C00501F000FB002031
:1007E0009949086053E09648C079002846D0974858
:1007F0000078002842D09248007B00283ED010218B
:10080000524801F0E1FA002802D100208E49086028
:100810008D4800688E49884208D301208849487075
:1008200000208749C87101208549087084480079F3
:10083000002819D187480068042806D201224021E7
:100840009020C00501F0CBFA21E0824800680B2817
:1008500006D2002240219020C00501F0C0FA16E027
:1008600000207C49086012E0012240219020C00550
:1008700001F0B5FA00207749086008E00022402125
:100880009020C00501F0ABFA00206F49086001BD5F
:1008900080B56B48007800280BD12E4800780528D9
:1008A00007D02C480078062803D06648C0785A281C
:1008B0000ADB0022802149019020C00501F08FFA57
:1008C0000020654908603FE05D484079002831D04C
:1008D0005E48007800282DD05948007900281ED1A4
:1008E0005D4800685D49884207D2012280214901A4
:1008F0009020C00501F073FA26E057480068FA21FD
:100900004901884207D20022802149019020C00578
:1009100001F065FA18E000204F49086014E0012258
:10092000802149019020C00501F059FA00204A4970
:10093000086009E00022802149019020C00501F0F3
:100940004EFA00204449086001BD00000004004840
:10095000240700209607002000B5394800780028B9
:1009600007D13F480078052803D03D480078062885
:1009700000D144E03B48407805280EDA39488078B9
:1009800000280AD13748C078002806D1022036490D
:10099000087000203249087031E032484078192848
:1009A00011DA3048807800280DD12E48C078002810
:1009B00009D103202C490870012029490870022020
:1009C0002A4908701BE0274840781E2811DA25487C
:1009D000807800280DD12348C078002809D1042050
:1009E0002149087001201E49087001201F49087024
:1009F00005E005201C49087001201949087000BD58
:100A000080B50F488079002818D00423184A1A218D
:100A1000A02001F09BFC164800780A490870144891
:100A20004078084948701248807806498870104814
:100A3000C0780449C87000200149887101BD0000D8
:100A4000F0060020580700202C0700209107002006
:100A500089130000340700203C070020B80B000079
:100A600096070020540700209407002093070020D9
:100A70005C07002080B5B8480078002807D0B74848
:100A80000078002803D0B4480079002807D1B44882
:100A9000C0785A2842DBB148007800283ED00022B6
:100AA000802109029020C00501F099F900228021DF
:100AB00049009020C00501F092F9A748C0790028AC
:100AC00022D1A548007800281ED0A448007800282C
:100AD0001AD0A4480068FA2806D20122802109020F
:100AE000A14801F07CF936E10022802109029E48EC
:100AF00001F075F99B480068FF21F631884202D366
:100B000000209849086026E10122802109029648C8
:100B100001F065F90020934908601CE193480078D2
:100B2000052814D10022802149009020C00501F041
:100B300056F90022802109029020C00501F04FF9EA
:100B4000012280210902884801F049F917E087480D
:100B50000078062813D10022802149009020C0058A
:100B600001F03DF90022802109029020C00501F02A
:100B700036F90122802109027B4801F030F900207A
:100B80007849086074480079002800D1E1E0734892
:100B90000078002800D1DCE074480078002809D0F3
:100BA000022800D1B5E069D3042800D1C7E000D203
:100BB000B0E0D0E06E480078002814D101228021F6
:100BC00009029020C00501F00AF9002280210902E3
:100BD000654801F004F90022802149009020C005F9
:100BE00001F0FDF834E062480078012814D10022B9
:100BF000802109029020C00501F0F1F80022802137
:100C00000902594801F0EBF80122802149009020A7
:100C1000C00501F0E4F81BE055480078022814D123
:100C20000022802109029020C00501F0D8F801229D
:100C3000802109024C4801F0D2F8002280214900AD
:100C40009020C00501F0CBF802E000204849087070
:100C500048480068FA21890088427CD30020454931
:100C6000086043480078401C4149087040480078BB
:100C7000032802DB00203E4908706CE03E48007803
:100C8000012814D10122802109029020C00501F021
:100C9000A6F8002280210902334801F0A0F80022C2
:100CA000802149009020C00501F099F830E03248D9
:100CB0000078022814D10022802109029020C0056A
:100CC00001F08DF8002280210902274801F087F801
:100CD0000122802149009020C00501F080F817E032
:100CE00025480078032813D1002280210902902092
:100CF000C00501F074F80122802109021A4801F0B0
:100D00006EF80022802149009020C00501F067F8AC
:100D100021E020E0012280210902134801F05FF860
:100D20000022802109029020C00501F058F800221D
:100D3000802149009020C00501F051F80BE000200F
:100D40000B49087000200B49086000200749087013
:100D500001E0FFF7CFF901BDF00600209107002068
:100D600058070020300700200004004896070020A4
:100D700092070020280700209307002010B50400E8
:100D80002068AD490968884204D18021C900AB4878
:100D900001F02FF82068AA490968884200D094E140
:100DA000CA480068401CC9490860C9480068401C1E
:100DB000C7490860C7480068401CC6490860C64863
:100DC0000068401CC4490860C4480068401CC3490E
:100DD0000860C3480068401CC1490860C1480068F9
:100DE000401CC0490860C0480068401CBE490860FB
:100DF000BE480068401CBD490860BD480068401CF2
:100E0000BB490860BA480068BA49884202D3BA4868
:100E1000B7490860B9480068401CB8490860B8483C
:100E20000088B6490968884203D2B5480088B349AA
:100E30000860B4480068401CB2490860B1480068C6
:100E4000B149884202D3B148AE490860B048006851
:100E5000401CAF490860AE480068AE49884202D3E2
:100E6000AD48AB490860AD480068401CAB4908601C
:100E7000AA480068AA49884203D3FA20C000A749BB
:100E80000860A8480078042801D1012000E0002073
:100E9000A4490978052901D1012100E00021C0B24F
:100EA000C9B20143002900D1ADE09F480088401C31
:100EB0009D49088080B2652800DAB0E000209A4998
:100EC00008809A4800889A490988884204D298483C
:100ED00000889749088003E0944800889449088076
:100EE0009448008891490988884204D29148008832
:100EF0009049088003E08D4800888E4908808A4820
:100F000080688A49098840188749886086488088AF
:100F1000401C854988808849097880B289B2884216
:100F20007DD30020804988807F4880688049098877
:100F3000401A80490988401A7B49886000207C4912
:100F4000088075487B490880774880687A49097825
:100F5000891E01F041FA7449888100207249886035
:100F600001207649C874704880896F49896A80B2C7
:100F700008186D4988626C488089714909888842DF
:100F800004D26F4800886E49088003E06648808973
:100F90006B4908806B48008863498989884204D27C
:100FA000684800886749088003E05F488089654990
:100FB00008805D48808C401C5B49888462490978C0
:100FC00080B289B288422AD3002057498884564883
:100FD000806A5B490988401A5A490988401A5A4967
:100FE0000978891E01F0F8F94F4988850020544995
:100FF000088049485349088000204B4988620120F5
:101000004E4948730BE00020474988840020464938
:101010000880002044498881002043498860414875
:101020000078042801D1012000E000203D49097822
:10103000052907D1012106E0EC0400200004004846
:10104000340500200021C0B2C9B20143002911D0EB
:101050009F480088401C9E4908809D4800889D4903
:10106000884207DB00209A4908809B480088401C82
:101070009949088099480088401C9849088080B2A6
:10108000652822DB0020954908802748806C274985
:10109000098840182449886491480088401C904978
:1010A00008802549097880B289B288420DD3002092
:1010B0008B4908801C48806C1F49097801F08CF925
:1010C0008849088000201849886410BD180700204E
:1010D0001C070020200700202407002028070020EC
:1010E0002C07002030070020480700204C07002074
:1010F00038070020214E0000204E00003407002059
:101100000C0000203C070020317500003075000005
:10111000400700201127000010270000440700208E
:10112000D1070000940700209C0400201407002031
:101130008C0700200800002010000020F00600208E
:101140008E0700200A0000200F00002000B566482E
:101150000088401C64490880634800883D2807DBFC
:1011600000206149088061480068401C5F490860B0
:101170005F48007800280FD15E48007800280BD027
:101180005B48007B002807D05B480078052803D027
:1011900059480078062800D199E05848C0785A2864
:1011A00000DB94E056480078401C554908705448CC
:1011B00000783C281FDB00205149087050484078D7
:1011C000401C4F4948704E4840783C2813DB0020B3
:1011D0004B4948704A488078401C494988704848C3
:1011E0008078182807DB0020454988704448C0787B
:1011F000401C4349C87041480078401C3F49087072
:101200003E4800783C2862DB00203C4908703B489F
:101210004078401C39494870384840783C2813DBF6
:1012200000203649487035488078401C3349887022
:1012300032488078182807DB0020304988702F4812
:10124000C078401C2D49C8702C4800782D49087082
:101250002A4840782B494870284880782949887066
:101260002648C0782749C8702448407800282BD0E9
:1012700022484078052827D0204840780A2823D0E3
:101280001E4840780F281FD01C48407814281BD0D7
:101290001A484078192817D0184840781E2813D0CB
:1012A0001648407823280FD01448407828280BD0BF
:1012B000124840782D2807D010484078322803D0B3
:1012C0000E484078372802D101200949887200BDB4
:1012D00088070020E903000080070020E2040020C6
:1012E000EA040020E80400208A07002050070020BC
:1012F000F0060020910700209607002058070020E4
:10130000540700206C07002080B5B548407A0028BB
:1013100000D1E5E0B3480068642800D25FE104230F
:10132000B14A1A21A02001F030F80423AF4A1A2153
:10133000A02001F02AF80423AD4A1A21A02001F0D0
:1013400024F8AC480068002802D00520A84908709D
:10135000A5480078A5490978884200D0AAE0A248AB
:101360000078A3490978884200D0A3E09E484078DD
:101370009E494978884200D09CE09B4840789C492F
:101380004978884200D095E09748807897498978D5
:10139000884200D08EE094488078954989788842C8
:1013A00000D087E090480078FF280BD08E48007866
:1013B0007F2807D08C4800783D2803DB8A480078D6
:1013C000FF282FD188484078FF280BD086484078E6
:1013D0007F2807D0844840783D2803DB8248407846
:1013E000FF281FD180488078FF280BD07E48807866
:1013F0007F2807D07C488078192803DB7A488078DA
:10140000FF280FD17848C078FF2811D07648C078DF
:101410007F280DD07448C0785B2809DB7248C078FB
:10142000FF2805D074480078401C7349087046E0D6
:1014300000206B4948726C480078FF2803D06A4846
:1014400000787F2801D1002001E0674800786B49CF
:10145000087065484078FF2803D0634840787F28AB
:1014600001D1002001E060484078644948705E483E
:101470008078FF2803D05C4880787F2801D1002045
:1014800001E0594880785D4988705748C078FF2846
:1014900003D05548C0787F2801D1002001E0524890
:1014A000C0785649C87001204D4908730020524940
:1014B000087004E050480078401C4F4908704E48BE
:1014C0000078332812DB4E48007800280ED0062022
:1014D0004C490870FEF7F4FD00204749087005E00C
:1014E00000203F49487200203E4908603C48807A0D
:1014F000002871D044480078002805D002281CD06C
:1015000011D3032825D050E00423404A1A21A020FB
:1015100000F01CFF00203E4908603B480078401C5A
:101520003949087044E03A480068332804D3364803
:101530000078401C344908703AE00423354A1A21E7
:10154000A02000F022FF30480078401C2E4908708F
:101550002EE031480068002802D005202D4948704F
:101560002C48407829494978884215D12948807803
:101570002649897888420FD12648C0782349C978FE
:10158000884209D10020164988720020234908703A
:1015900001201349887404E020480078401C1F494A
:1015A000087000201849087002E0002016490870F1
:1015B0001A480078332812DB1148007800280ED032
:1015C000052010490870002005498872FEF778FD53
:1015D00000201249087002E000200D49086001BD9A
:1015E000F006002038070020600700206407002074
:1015F0006807002074070020970700205807002084
:101600009107002096070020990700206C07002012
:101610004807002070070020780700209807002066
:1016200080B59348007C00282BD000209049087496
:1016300000F071FF8F4800F0F1FF8F480068022131
:1016400088438D4908608A48C27B0023894902206B
:1016500000F01AFF8648027900238849022000F032
:1016600013FF8348C27800238549022000F00CFF55
:10167000844802780023C749022000F005FF00F0EB
:101680005DFF7B48407C002827D0002078494874C3
:1016900000F041FF774800F0C1FF77480068022161
:1016A000884375490860002200237249022000F037
:1016B000EBFE002200237149022000F0E5FE00222B
:1016C00000236F49022000F0DFFE00220023B14911
:1016D000022000F0D9FE00F031FF01BD80B5C748FF
:1016E0000078002824D0C5484078002820D000F099
:1016F00012FFB54800F092FF5F480068022188435E
:101700005D490860BD4842780023AF49022000F0DF
:10171000BBFE00F013FFAC480068B8494978C0B27E
:10172000884205D10020B54908700020B3494870AF
:10173000B248807800280DD0A3480068AF49C8702F
:10174000A1480068AD49C978C0B2884202D10020E2
:10175000AA498870A948007900281AD000F0DBFE59
:10176000994800F05BFF44480068022188434249E1
:101770000860002200239449022000F085FE00F05A
:10178000DDFE91480068C0B2002802D100209B49CC
:10179000087101BD80B500F059FF00F075F800F048
:1017A0009DF900F077F900F04AF900F0A7F800F091
:1017B000F3F800F00BF900F023F901F0C0FA01F0A2
:1017C00052FBC44800F05FFB0222B149C24801F05D
:1017D00041FC002801D000F007FA0120244948709C
:1017E000244800682249C8732148C07BFE2803D1E1
:1017F00001201F49C87306E01D48C07BFF2802D1A5
:1018000000201B49C8731A48C07B002815D01B480C
:101810000068174908711A4800681549C8705D4882
:1018200000681849087017480078002805D0012082
:101830000F49C87101200E49487101F0C7FDFEF73C
:101840006FFCFEF76DFE02F0EFF9FEF759FFFFF7B0
:1018500011F9FFF71DF8FFF7D3F8FFF77DF8FEF752
:10186000A7FFFFF751FDFFF7DBFEFFF737FFE4E7C8
:10187000F006002000F801081020024004F80108DA
:1018800008F801089107002000B595B009A830219B
:1018900002F0EAF96846102102F0E6F904A81421E2
:1018A00002F0E2F90220099001200C9010200D9026
:1018B0000020119009A800F0D9FE002801D000F006
:1018C00093F9072000900020019000200290002052
:1018D00003900021684601F053F9002801D000F080
:1018E00083F9012004900020069004A802F0BEF9BC
:1018F000002801D000F078F915B000BDE0B56846C9
:101900000C2102F0B1F9AA48734908608020C00593
:101910007149486000207049886000206E49C860A5
:1019200001206D49086108206B49486100206A491F
:1019300008760020684948760120674988760020AB
:101940006549C876FF20C2306349C86100206249FA
:10195000086201209749087000205F4988620620CC
:101960005D49C8625C4801F093FA002801D000F09C
:101970003BF902200090802040010190802040052A
:1019800002906946544801F0C1FB002801D000F0E4
:101990002BF907BD0CF8010880B587488749086016
:1019A000072086494860002084498860B320834925
:1019B000C860002081498861804800F02DFA002825
:1019C00001D000F011F901BDF0FF010880B57C489D
:1019D0004049086007203F49486000203D49886031
:1019E00078483C49C86000203A498861394800F08D
:1019F00013FA002801D000F0F7F801BD0C07002011
:101A000080B5714871490860012070494860002024
:101A10006E498860FF2090306C49C86000206B4997
:101A20000861002069494861002068498861674869
:101A300000F0F2F9002801D000F0D6F801BD80B521
:101A4000634864490860962080016249486000202C
:101A50006049886000205F49C86000205D490861D6
:101A60000C205C49486100205A498861002059498E
:101A7000C86100205749086200205649486255480D
:101A800002F09EF9002801D000F0AEF801BD000080
:101A90001407002080B550480068012101434E48DA
:101AA00001604D4800680100C907C90F0091009806
:101AB00000220021092001F0CCF9092001F0CEF923
:101AC000002200210B2001F0C4F90B2001F0C6F91F
:101AD00001BD0000340500209006002000B587B04D
:101AE00001A8142102F0C0F83B4800688021C90316
:101AF000014339480160384800688021C903084023
:101B000000900098344800688021890201433248DF
:101B100001603148006880218902084000900098E7
:101B20002D4800688021C90201432B4801602A48E2
:101B300000688021C90208400090009800222749CF
:101B40009020C00500F04BF900222549254800F0FF
:101B500046F92248019001200290002003900020C5
:101B6000049001A99020C00500F042F811200190D6
:101B7000002002900020039001A91A4800F038F8D4
:101B8000174801900120029000200390002004904B
:101B900001A9144800F02CF80420019000200290C4
:101BA0000120039001A90F4800F022F807B000BD02
:101BB00000240140B406002000100040EC04002086
:101BC00000140040E7030000004401407C050020B1
:101BD000003801401804002014100240E391000076
:101BE000C2FE00000004004800B572B6FEE7FEE742
:101BF000F8B50200002333E005201D00AD07AD0F4E
:101C000004277D43A840304306006A489D08042706
:101C10007D43465168480668A6434868C00300D51E
:101C200026436548066065480668A6434868800301
:101C300000D526436148066061480668A6434868A7
:101C4000C00200D526435E4806605E480668A6438B
:101C50004868800201D5344326005A4806605B1C60
:101C60000868D840002800D1A2E0086801249C4000
:101C70000440002CF3D04868012808D048680228A6
:101C800005D04868112802D0486812281AD19668F1
:101C900003201D0002277D43A8408643C8681D001D
:101CA00002277D43A8403043060096605668012015
:101CB00098408643350048680600F606F60F9E40B9
:101CC0002E435660D66803201D0002277D43A8409E
:101CD000864388681D0002277D43A84030430600E4
:101CE000D6604868022802D0486812281AD1D8085D
:101CF000042568431018066A0F201D006D076D0F3C
:101D000004277D43A840864308691D006D076D0FB9
:101D100004277D43A84030430600D80804256843C3
:101D200010180662166803201D0002277D43A84094
:101D3000864330000D79AE07B60F1F0002256F43B2
:101D4000BE40064316604868C00088D52E4800682B
:101D5000012505432C4805602B4800680500ED0768
:101D6000ED0F0095009813489D08042675434659C9
:101D700035000F201E00B607B60F04277E43B04083
:101D80002E0086439020C005824201D1002034E716
:101D90001E48824201D101202FE71D48824201D115
:101DA00002202AE71B48824200D025E7032024E7CF
:101DB000F1BD00000800014000040140040401409E
:101DC000080401400C04014000B5006989B20840D4
:101DD000002801D0012000E00020C0B200BD00B505
:101DE000D2B2002A02D089B2816101E089B2816257
:101DF00000BD426989B20B0013401B0489B29143B4
:101E00001943816170470000181002400004004827
:101E100000080048000C004810B50400002C01D157
:101E200001202FE03D20205C002805D100203C212E
:101E30006054200002F0DAFB02203D216054211D95
:101E4000206800F03AF901204621605401203E212B
:101E5000605401203F216054012040216054012042
:101E600041216054012042216054012043216054EB
:101E700001204421605401204521605401203D216E
:101E80006054002010BD00B53D21415C012901D006
:101E9000012028E002213D2281540168C968012205
:101EA0000A430168CA600168204A914207D001686C
:101EB0001F4A914203D001681E4A91420CD1016829
:101EC00089684907490F06290CD001680968012271
:101ED0000A430068026005E00168096801220A43BC
:101EE00000680260002000BD00B50168C9680122D9
:101EF00091430268D1600168096A0A4A0A40002ACF
:101F00000BD10168096A084A0A40002A05D1016814
:101F10000968012291430268116001213D22815428
:101F2000002000BD1111000044040000002C0140FD
:101F3000000400400040014010B504002068006922
:101F400080071BD52068C068800717D50220C043D2
:101F50002168086101202077206880698007800F50
:101F6000002803D0200002F047FC05E0200002F02A
:101F700044FC200002F042FC002020772068006929
:101F800040071CD52068C068400718D50420C0430E
:101F9000216808610220207720688069C0218900BB
:101FA0000140002903D0200002F026FC05E02000BB
:101FB00002F023FC200002F021FC002020772068A2
:101FC000006900071BD52068C068000717D50820E6
:101FD000C04321680861042020772068C069800719
:101FE000800F002803D0200002F006FC05E020004E
:101FF00002F003FC200002F001FC002020772068A2
:102000000069C0061CD52068C068C00618D510201D
:10201000C04321680861082020772068C069C0217A
:1020200089000140002903D0200002F0E5FB05E013
:10203000200002F0E2FB200002F0E0FB002020770D
:1020400020680069C0070AD52068C068C00706D5A7
:102050000120C043216808612000FEF78FFE206840
:10206000006900060AD52068C068000606D58020F1
:10207000C04321680861200002F0C1FB20680069AC
:1020800040060AD52068C068400606D54020C043F7
:1020900021680861200002F0B3FB20680069800617
:1020A0000AD52068C068800606D52020C043216874
:1020B0000861200002F0A5FB10BD00B502681F4BAF
:1020C000984202D01E4B984204D170239A431300C9
:1020D0004A681A43194B98420ED0194B98420BD0BC
:1020E000184B984208D0184B984205D0174B98428D
:1020F00002D0184B984205D11300154A1A4013001C
:10210000CA681A4380239A4313004A691A4302603B
:102110008A68C2620A688262084A904208D00A4A03
:10212000904205D0094A904202D00A4A904201D119
:10213000096901630121416100BD0000002C0140DB
:1021400000040040002000400040014000440140E5
:10215000FFFCFFFF0048014080B579480068A021DE
:10216000C901014376480160012280217448FFF7CC
:1021700036FE012240217248FFF731FE00BF00BF4A
:10218000002280216E48FFF72AFE00BF00BF002218
:1021900040216B48FFF723FE00BF00BF01BD0000D8
:1021A00080B567480068A021C90101436448016007
:1021B000002280216248FFF712FE00BF00BF01220B
:1021C00040215F48FFF70BFE00BF00BF01228021C6
:1021D0005B48FFF704FE01BD38B5050000245848F0
:1021E00000688021C901014355480160002419E0BD
:1021F000002280215248FFF7F2FD00BF00BF00BF60
:10220000012240214E48FFF7EAFD00BF00BF00BF9A
:102210006D00002240214A48FFF7E1FD00BF00BFEA
:1022200000BF641CE4B2082C08DAEDB22806DFD542
:10223000012280214248FFF7D2FDDEE740480068D6
:10224000404901403E48016000BF00BF00224021DC
:102250003B48FFF7C4FD00BF00BF012240213848C2
:10226000FFF7BDFD00BF00BF002240213448FFF74B
:10227000B6FD334800688021C90101433048016040
:1022800031BD000070B5060000242D4800682D49BE
:1022900001402B48016000BF00BF00BF00BF002508
:1022A0001BE000BF00BF00BF012240212448FFF710
:1022B00096FD00BF00BF00BF640023480068000611
:1022C00002D5200001240443002240211C48FFF7CE
:1022D00086FD00BF00BF00BF6D1CEDB2082DE0DB26
:1022E000174800688021C901014315480160F6B212
:1022F000012E05D1012280211148FFF770FD04E075
:10230000002280210E48FFF76AFD00BF00BF0122B6
:1023100040210B48FFF763FD00BF00BF00BF002254
:1023200040210748FFF75BFD012280210448FFF7A9
:1023300056FD00BF00BF00BF2000C0B270BD00004E
:1023400000040048FF3FFFFF10040048F8B50400F8
:102350000F0015001E00FFF7FFFE2000C0B2FFF7C0
:102360003BFF3800C0B2FFF737FF002404E0E4B2BF
:10237000285DFFF731FF641C20003100C0B2C9B2F4
:102380008842F4D3FFF70CFFF1BDF8B504000F004D
:1023900015001E00FFF7E0FE2000C0B2FFF71CFF93
:1023A0003800C0B2FFF718FFFFF7D6FE641C20000C
:1023B000C0B2FFF711FF002405E00020FFF762FF25
:1023C000E4B22855641C20003100C0B2C9B2884272
:1023D000F3D3FFF7E5FEF1BD0022030A8B420BD2D7
:1023E00003098B4219D243088B422ED2411A00D2E4
:1023F0000146524110467047FF2209023FD01206A3
:102400008B4205D3121209028B4201D31212090228
:1024100003098B4219D300E0090AC3098B4201D397
:10242000CB01C01A524183098B4201D38B01C01AE0
:10243000524143098B4201D34B01C01A5241030957
:102440008B4201D30B01C01A5241C3088B4201D306
:10245000CB00C01A524183088B4201D38B00C01AB3
:10246000524143088B4201D34B00C01A524188426B
:1024700000D3401A5241CFD201461046704708B5EA
:1024800002F0C0F908BDFEE7F8B50CB406000F0075
:102490000120002400253448007E012801D10220BB
:1024A00038E0012030490876284800F05FF8C0B2D3
:1024B00000282BD1012E01D1012504E0022E01D1EB
:1024C000022500E00425002400E0641C21002A000D
:1024D000C9B2D2B2914219D2684603C810226243EF
:1024E00002F092F9010089B2E4B202206043381888
:1024F00000F02EF8154800F039F832490968012239
:102500009143304A1160C0B20028DED00021164A43
:102510001176C0B2FEBD00B500202A49096809063F
:102520000AD53B493B4A11603B493A4A116025496B
:102530000968090600D50120C0B200BD2148006825
:10254000802101431F4801600020704750C30000F4
:102550000022054BDA611B4A126801231343194A12
:102560001360018070470000D006002038B50400D9
:1025700002F05AF9050024480068C0070CD5002075
:10258000C0438442F7D0002C04D002F04DF9401B28
:102590008442F0D2032013E01B480068800602D575
:1025A00020201949086018480068C00603D416485E
:1025B0000068400703D500F007F8012000E0002084
:1025C00032BD00001020024000B500200E4909680D
:1025D000C90608D50D49C96902220A430B49CA61D7
:1025E00001001020084308490968490708D5074930
:1025F000C96901220A430549CA6101000420084350
:102600000149086000BD00000C200240D0060020F7
:102610002301674504200240AB89EFCD0021084A21
:10262000D1610849096802220A4306490A6006493D
:102630000860044800684021014302480160704777
:10264000D0060020102002401420024080B5064829
:1026500000681021014304480160002002F0EAF8FC
:1026600001F046FF002002BD0020024070B582B09C
:102670000400002C01D1012074E22078C00775D538
:10268000AE4800680C21014004290ED0AB48006818
:102690000C210140082911D1A8480068C021490235
:1026A000014080204002814208D1BC48006880037C
:1026B0005CD56068002859D1012053E26068012888
:1026C00007D1B6480068802149020143B348016040
:1026D0002DE0606800280CD1B0480068B049014086
:1026E000AE480160AD480068AE490140AB480160AA
:1026F0001DE0606805280ED1A84800688021C90245
:102700000143A6480160A5480068802149020143B1
:10271000A24801600BE0A1480068A14901409F4820
:1027200001609E4800689F4901409C4801606068C4
:1027300000280DD002F078F8050098480068800362
:1027400014D402F071F8401B6528F6D3032009E287
:1027500002F06AF8050091480068800306D502F08F
:1027600063F8401B6528F6D30320FBE1207880073F
:1027700026D5724800680C21014000290ED06F4810
:1027800000680C210140082934D16C480068C02140
:10279000490201408020000281422BD17F4800681D
:1027A000800704D5E068012801D00120DAE17B48E8
:1027B0000068F82188432169C90001437748016016
:1027C000207800075FD5E069002848D0B848006845
:1027D00001210143B648016002F026F80500B44823
:1027E000006880074FD402F01FF8401B0328F6D37F
:1027F0000320B7E1E06800281DD068480068012187
:1028000001436648016002F00FF805006348006864
:10281000800706D402F008F8401B0328F6D30320F3
:10282000A0E15E480068F82188432169C90001439E
:102830005A480160C4E75948006801218843574954
:10284000086001F0F1FF0500544800688007B7D523
:1028500001F0EAFF401B0328F6D3032082E19448ED
:102860000068012188439249086001F0DDFF0500FE
:102870008F480068800706D501F0D6FF401B03286B
:10288000F6D303206EE12078400700D495E00026BF
:10289000B5480068C0000ED4B348006880214905DF
:1028A0000143B1480160B0480068802149050840F3
:1028B000009000980126AD480068C00514D4AB48CC
:1028C0000068802149000143A848016001F0ACFF85
:1028D0000500A6480068C00506D401F0A5FF401B0E
:1028E0006528F6D303203DE1A068012806D1A04861
:1028F0000068012101439E4801602DE0A068002886
:102900000CD19B4800680121884399490860984888
:10291000006804218843964908601DE0A0680528E6
:102920000ED193480068042101439148016090480A
:102930000068012101438E4801600DE0041002404F
:102940008B480068012188438949086088480068ED
:102950000421884386490860A06800280ED001F051
:1029600063FF05008248006880071DD401F05CFF0A
:10297000401B80498842F5D30320F3E001F054FF67
:1029800005007B48006880070ED501F04DFF401B15
:1029900078498842F5D30320E4E000BF00100240EC
:1029A000FFFFFEFFFFFFFBFFF6B2012E05D16E48D1
:1029B0000068714901406C4801602078C00625D547
:1029C0006069012844D16D480068042101436B48C7
:1029D00001606A480068012101436848016001F014
:1029E00023FF050065480068800706D401F01CFF3E
:1029F000401B0328F6D30320B4E060480068F821A8
:102A00008843A169C90001435C480160206A00282D
:102A100000D1A6E0A84800680C210140082900D197
:102A200083E0206A02286CD1A4480068A4490140D0
:102A3000A248016001F0F8FE0500A048006880018E
:102A400038D501F0F1FE401B0328F6D3032089E0BE
:102A500060690421C94388420FD1484800680421B5
:102A600088434649086045480068F8218843A169C1
:102A7000C900014341480160C8E74048006804219B
:102A800001433E4801603D480068012188433B49BD
:102A9000086001F0C9FE0500384800688007B5D518
:102AA00001F0C2FE401B0328F6D303205AE000BF0A
:102AB00024100240A34800680F218843E16A0143C3
:102AC000A04801607C4800687E490140A06A084334
:102AD000616A0143784801607848006880214904B0
:102AE00001437648016001F09FFE050073480068CD
:102AF000800136D401F098FE401B0328F6D3032052
:102B000030E06E4800686E4901406C48016001F099
:102B10008BFE050069480068800122D501F084FE23
:102B2000401B0328F6D303201CE0206A012801D1B2
:102B3000012017E06048006882490968C0225202FB
:102B40000240636A9A420AD10907090FE26A914278
:102B500005D1F02189030140A06A814201D0012002
:102B600000E0002076BD00001C1002400070004014
:102B70002010024089130000FFFFFFEF34100240D5
:102B800070B505000C00002D01D1012093E07448C0
:102B900000680100C907C90FA1420FD27048006840
:102BA0000121884320436E4908606D480068010098
:102BB000C907C90FA14201D001207CE02878800715
:102BC00011D52878400706D53B480068E021C900A8
:102BD00001433948016038480068F0218843A968FA
:102BE0000143354801602878C00732D5686801285C
:102BF00005D132480068800310D401205BE068688A
:102C0000022805D12D480068800107D4012052E038
:102C10002A480068800701D401204CE0264800685B
:102C200003218843696801432348016001F0FCFDEA
:102C30000600214800680C2101406868800081423C
:102C400007D001F0F1FD801B46498842F1D30320F3
:102C500031E0434800680100C907C90F8C420FD218
:102C60003F4800680121884320433D4908603C48B3
:102C700000680100C907C90FA14201D001201AE074
:102C80002878400707D50C48006837490140E868B4
:102C900008430949086000F017F83449064A1268E9
:102CA00012091207120F895CC840314908600020E0
:102CB00001F0C0FD002070BD041002400010024071
:102CC000FFFFFFFEFF7FC2FF10B588B004A82A49AE
:102CD000102201F0D7FD68462849102201F0D2FDEC
:102CE00000200021002000240020224800680C2140
:102CF0000140042902D0082902D01DE020481CE030
:102D000004A9820C1207120F8C5C69460D4A1268E6
:102D10001207120F895CC02252020240802040023A
:102D2000824204D11648FFF757FB604303E0144882
:102D3000FFF752FB604300E0114808B010BD0C489B
:102D4000006870472C10024080B5FFF7F8FF0D496E
:102D5000084A1268120A5207520F895CC84002BD25
:102D60000020024089130000FFF8FFFF5C550008B7
:102D700004000020041002403C5500084C55000897
:102D800000127A008855000800B540B2002805D42A
:102D90000121C006C00E81403548016000BDF0B57C
:102DA00040B200281BD4334A40B283080424634352
:102DB000D258FF238407A40F08256C43A3409A43ED
:102DC0008901C9B283079B0F0824634399401143CB
:102DD000284A40B2800804235843115020E0264B73
:102DE00040B20207120F083A920804246243224CB0
:102DF00040B205072D0F083DAD0804267543645900
:102E0000FF258607B60F08277E43B540AC438901EE
:102E1000C9B28007800F082568438140214399503B
:102E2000F0BD80B5411E80225204914201D30120A1
:102E30000EE0401E1149086003210020C043FFF747
:102E4000AEFF00200E49086007200E4908600020F0
:102E500002BD80B540B2FFF7A2FF01BD80B540B210
:102E6000FFF792FF01BD80B5FFF7DBFF02BD000059
:102E700000E100E000E400E01CED00E014E000E010
:102E800018E000E010E000E080B5FEF75FF901BD5A
:102E900070B5040000250026002C01D10120D2E0ED
:102EA000A06B002807D10020E0630020342160548B
:102EB000200001F042FBA06BC00600D5BCE0EDB2E3
:102EC000002D00D0B8E020688068400700D5B3E04E
:102ED000A06B5D49014002200843A0632068806820
:102EE0008007800F012809D120680068C00703D43B
:102EF0002068C068000401D5012000E000200028FF
:102F00000FD12068C06818218843A1680143206858
:102F1000C160206800698000800861680143206802
:102F200001612068C068494901402068C160A06A09
:102F3000012802D08020400100E000202169022900
:102F400001D1042100E00021227E9303627ED2039E
:102F50001A43A37E5B0313431843E2680243114301
:102F60002420205C4000084330430600E07E012816
:102F70000FD1A07E002804D13000802676020643BF
:102F800007E0A06B20210143A163E06B0121014315
:102F9000E163E069FF21C231884204D03100E06979
:102FA000266A06430E432068C06830432168C86023
:102FB000E06A80214905884214D0E06A012811D0D6
:102FC000E06A02280ED0E06A03280BD0E06A0428E9
:102FD00008D0E06A052805D0E06A062802D0E06A39
:102FE00007280ED12068406907218843216848617D
:102FF000206840692C21615C4907490F0143206822
:1030000041612068C06812490140B14208D10020E6
:10301000E063A06B0221884301210143A16310E01A
:10302000A06B0221884310210143A163E06B0121C1
:103030000143E163012504E0A06B10210143A1637A
:1030400001252800C0B270BDFFFEFFFF1902FEFF80
:10305000E7FF3F83F8B504000F0016000025206845
:103060008068400745D43420205C012801D102202B
:1030700042E0012034216054607E012803D020000A
:1030800000F0F6F80500EDB2002D33D1A06B1B491E
:103090000140802040000843A0630020E06300203E
:1030A000342160541648216B88621648216BC8622F
:1030B0001548216B08631C2021680860206840685F
:1030C00010210143206841602068C068012101434C
:1030D0002068C16033003A00206801004031206B55
:1030E00001F01AFC20688068042101432068816097
:1030F00000E002252800C0B2F2BD0000FEF1FFFF93
:1031000029330008A9330008B333000838B5040098
:10311000002500200090E06A80225205904213D0E2
:10312000E06A012810D0E06A02280DD0E06A032886
:103130000AD0E06A042807D0E06A052804D0E06AD3
:10314000062801D0E06A07283420205C012801D13C
:1031500002208CE001203422A054206880684007BF
:103160007BD448686C4A90425BD02068806A012218
:103170000B689A40024320688262E06A802252050E
:10318000904229D0E06A012826D0E06A022823D0A4
:10319000E06A032820D0E06A04281DD0E06A0528F0
:1031A0001AD0E06A062817D0E06A072814D0886889
:1031B000226852695207520F90420DD02068406930
:1031C0000722904322685061206840690A7A5207BA
:1031D000520F0243206842610868102802D0086834
:1031E00011283FD10868102802D18020000401E096
:1031F0008020C003494A12681043484A106008689A
:1032000010282FD1464800684649FFF7E5F80A2103
:10321000484300900098002824D00098401E009059
:10322000F8E72068806A01220B689A409043226880
:1032300090620868102802D00868112812D1086826
:10324000102802D18020000401E08020C00333490F
:10325000096881433148016004E0A06B20210143EB
:10326000A16301250020342160542800C0B232BD82
:1032700038B5040000250020009020688068800791
:10328000800F012809D120680068C00703D4206896
:10329000C068000401D5012000E00020002838D1DA
:1032A000206880683E490140002909D0A06B1021A8
:1032B0000143A163E06B01210143E163012029E0A7
:1032C00020688068012101432068816014480068FB
:1032D0001449FFF781F8009002E00098401E00902A
:1032E00000980028F9D101F09FFA050020680068D5
:1032F000C0070ED401F098FA401B0328F6D3A06B48
:1033000010210143A163E06B01210143E16301202E
:1033100000E0002032BD000001100000082701403D
:103320000400002040420F0080B5416A8A6B5023A0
:103330001340002B2FD1886B8022920002438A63B6
:103340000868C068C02212010240002A1FD1887E8E
:1033500000281CD108680068000718D50868806834
:1033600040070CD4086840680C2290430A685060FB
:10337000886B0C4A024001201043886307E0886B89
:10338000202202438A63C86B01220243CA630800F9
:1033900001F0DEFB02E0096B096B884701BD00000C
:1033A00017000080FFFEFFFF80B5406A01F0D1FBEF
:1033B00001BD80B5406A816B40220A438263C16BC4
:1033C00004220A43C26301F0C5FB01BD10B5A34846
:1033D0004421405E00B2A1494022895E50398842B2
:1033E00009DB9E484021405E00B250309B49442298
:1033F000895E884207DA0020D04908809848008812
:10340000984908802FE095484021405E00B2503036
:1034100092494422895E401A00280AD48F484021EC
:10342000405E00B250308D494422895E401A4228E5
:1034300015DB8A484421405E00B288494022895EFB
:10344000401A503000280ED484484421405E00B217
:1034500082494022895E401A5030422803DA80486F
:10346000008880490880C748407B002800D1A5E239
:103470000020C44948737948808D01F077FBC2A2CF
:103480000CCA01F083FB0022C14B01F041FC01F0AA
:10349000A0FC724948637148416BBE4801F0CAFC08
:1034A000BD4901F01FFD6D4988636C48816B6B4815
:1034B000406B01F06CFD6949C8636848C06BCD4939
:1034C00001F0F0FD0CD26548416BCB4801F0B2FC35
:1034D000CA4901F05CFD01F0F9FD6149088015E081
:1034E0005E48C06B01F010FE02000B00D2A003C8C2
:1034F00001F00EFC0022D24B01F01FFE0022D14B46
:1035000001F044FB01F0EEFE554908805348406B42
:10351000CD4901F00FFF00D9A6E0D3480078052877
:1035200000D0A1E00320D14908704C484221405E00
:103530004A494422895E00B2884206DA4848008837
:10354000CB49088000207D4908807C4800883C28C1
:1035500014DB002079490880C54800884B38C449ED
:1035600008803E484421405E3C494222895E00B2C8
:10357000884203DB3A480088BD4908803748442127
:10358000405E00B201F0EAFE040034484221405E91
:1035900001F0E4FE0100200001F0A4FC2F490862C4
:1035A0002E48006ABE4901F0C5FE2AD8BD48007801
:1035B00002280AD10020BC490880BC480088401C71
:1035C000BA4908800020BA490880B84800883C28D9
:1035D00013DB0020B54908800020B5490880002091
:1035E000B14908801E480088FA21C9004018A04946
:1035F00008800320AF4908702AE00220AD49087016
:1036000026E0A848007803280AD10020A7490880AE
:103610000020A7490880A4480088401CA2490880CF
:10362000A1480088292810DB0020A049088000203C
:103630009F49088000209C490880094800888C49DF
:10364000088002209B49087002E003209949087015
:103650009848007893490870B0E100BF9C040020AE
:10366000E0040020DC0400209348406B934901F003
:1036700061FE00D9C4E07C480078052800D0BFE096
:103680008D484221405E8C494422895E00B28842C6
:1036900006DAD74800887649088000202749088044
:1036A000264800883C2814DB002024490880704804
:1036B00000884B386E4908807F484421405E7E492F
:1036C0004222895E00B2884203DBC948008868490B
:1036D000088079484421405E00B201F03FFE0400BA
:1036E00075484221405E01F039FE0100200001F0E2
:1036F000F9FB714908627048006A694901F01AFED5
:103700002ED86848007801280AD10020674908802F
:1037100067480088401C664908800020624908808C
:10372000624800883C2817DB0020604908800020A0
:103730005F49088000205C4902E000BF800700204C
:103740000880AB480088FA21C90040184849088021
:1037500002205849087048E001205649087044E0AA
:1037600042480078012819D15348006A9E4901F067
:1037700099FC13D24B48007801280FD003204D4903
:10378000087032E0F00600206666666666660A40EB
:103790000000B040000061450080D44541480078F9
:1037A00002280AD141480088401C40490880002076
:1037B0003F49088000203C4908803C4800883D285B
:1037C00010DB00203949088000203949088000209A
:1037D00035490880864800882549088001203549F8
:1037E000087002E0022033490870324800782D4901
:1037F0000870E3E06766E63F002025C500F04E460E
:1038000001201A49087000206E49086000202849EC
:10381000088024480078022803D022480078032832
:103820006ED120480078022810D120480088401C22
:103830001E4908800DE000BF21B0726891ED134071
:103840000000F0BF0050C440010040400020174974
:1038500008801448007803280CD113480088401CC5
:103860001149088009E000BF94070020900700205C
:10387000DE04002000200C4908800C4800886528E0
:1038800003DA094800885B283ADB074800880749C3
:103890000988884214D208484421405E1BE000BFDA
:1038A000A4707D3F0E0000208607002082070020C4
:1038B00084070020930700209C0400203433334009
:1038C00048484421405E01F047F93FA20CCA01F08C
:1038D0001FFA01F007FD414908803E4800883C4935
:1038E0000988884203D201204049087002E0022082
:1038F0003E4908700020364908800020354908807C
:1039000038484221405E37494422895E00B28842ED
:1039100006DA374800883149088000202E4908809F
:103920002D4800883C2814DB00202B4908802B48B8
:1039300000884B38294908802A484421405E29499B
:103940004222895E00B2884203DB2948008823496D
:10395000088024484421405E00B201F0FFFC0400CE
:1039600020484221405E01F0F9FC0100200001F0F6
:10397000B9FA1C4908621B48006A194901F0DAFCCF
:1039800003D801201949087014E01648006A164946
:1039900001F0D0FC03D80220144908700AE008485E
:1039A0000078012803D102201049087002E00320AA
:1039B0000E4908700D4800780149087010BD00BF1D
:1039C0000E00002050070020666666666666EE3FC1
:1039D000820700208607002080070020DE040020E8
:1039E000A4707D3F9C040020C3F5683F930700202E
:1039F000E004002080B5834800680A280ED3002028
:103A00008049086000208049087001217F48FEF746
:103A1000DBF9002802D001207B49087001BD00B508
:103A200079488078002806D0022831D010D30428A5
:103A300059D050D360E07448007800285FD000204F
:103A40007349086070488078401C6F49887056E060
:103A50006D480078002803D100206B4988704EE043
:103A60006B48006864284AD3002069490860022036
:103A70006549887067480078002808D101206249AC
:103A8000487000206049C87004205F49887036E0A3
:103A90005D48007800280CD100205B498870012027
:103AA0005949487000205849C8700020584908609A
:103AB00025E0574800685849884220D300205449DF
:103AC000086001205049C87001204F494870032008
:103AD0004D49887013E04C48007800280FD1002031
:103AE000494988700BE048480078002803D100203D
:103AF0004549887003E002E000204349887000BD1A
:103B000080B50120454948704248007800282CD0F3
:103B10003D48C078012828D140480079002810D0BD
:103B20003E48807800280CD13C48C07B01214140B0
:103B30003A48C17305203A49087001203749087492
:103B400053E036480079012141403448017133483F
:103B5000C078012141403148C1703048C07B002805
:103B600002D001202D4908743FE02A480078012145
:103B70004140284801702748007800280FD00120D4
:103B80002649087101202549C87001202349C871C0
:103B90000120224948710420224908701EE0214872
:103BA0000078052803D01F480078062802D101209C
:103BB0001A49487200201B490870FCF781FA00205E
:103BC0001649087000201549487100201349C87132
:103BD00000201249087100201049C8700F48C07BAE
:103BE000002802D001200D49087401BD80B50648A7
:103BF0004078002804D0002003494870FFF780FF78
:103C000001BD000018070020040700200004004840
:103C10001C07002091070020540B0000F006002034
:103C2000950700209607002080B5FFF7E3FEFFF719
:103C3000F6FEFFF7DBFF01BD130030B414001500E2
:103C4000103902D310393CC0FCD2490700D30CC054
:103C500000D504C0890002D30280801C002900D551
:103C6000027030BC704700000022E5E770B582B0FA
:103C70000400002600202068C0036ED500254848B7
:103C80000068C0000ED44648006880214905014301
:103C9000434801604248006880214905084000907F
:103CA000009801253F480068C00514D43D480068CD
:103CB0008021490001433B48016000F0B5FD06004A
:103CC00038480068C00506D400F0AEFD801B6528AA
:103CD000F6D3032063E034480168C0208000084028
:103CE000002829D06168C02292000A40904223D067
:103CF0002D4801682D4808402B490968802252024E
:103D00000A4329490A6028490968294A0A4026497C
:103D10000A6025490860C0070ED500F085FD060041
:103D200021480068800707D400F07EFD801B2149F0
:103D30008842F5D3032032E01B4800681B4901404C
:103D40006068084318490860EDB2012D05D1144898
:103D5000006819490140124801602078C00707D562
:103D60001648006803218843A16801431348016095
:103D70002078800607D51148006810218843E16843
:103D800001430E4801602068800307D50B48006896
:103D9000802188432169014308480160002076BDE5
:103DA0001C1002400070004020100240FFFCFFFF8A
:103DB000FFFFFEFF89130000FFFFFFEF30100240FE
:103DC00010B50400002C01D1012035E0A0690028C5
:103DD000FFD1A06F002805D100207421605420007D
:103DE00000F058FC2420A067206800680121884367
:103DF00021680860200000F05DF9012801D1012050
:103E00001AE0606A002802D0200000F00FFA206853
:103E100040680A49014020684160206880680821A4
:103E20008843216888602068006801210143206878
:103E30000160200000F06EFA10BD0000FFF7FFFFE8
:103E400038B504002068C069216809682268926852
:103E5000934B0340002B0AD1850608D58D0606D565
:103E6000606E002802D02000616E884716E1002BAA
:103E700000D18EE0D30704D48A4B0B40002B00D135
:103E800087E0C3070AD5CB0508D5012325682B6237
:103E90008023E35801251D438023E55083070AD57D
:103EA000D30708D5022325682B628023E358042515
:103EB0001D438023E55043070AD5D30708D50423C3
:103EC00025682B628023E35802251D438023E5509B
:103ED00003070CD58B0601D4D20708D50822236826
:103EE0001A628022A258082313438022A35002059D
:103EF0000BD54A0109D58022120123681A6280225B
:103F0000A258202313438022A3508022A258002AC3
:103F10003ED0800607D5880605D5606E002802D001
:103F20002000616E884780202058216889684906F2
:103F300003D428210140002924D0200000F096FA63
:103F400020688068400619D5206880684021884331
:103F500021688860206F00280CD05348216F486387
:103F6000206F00F040FD002812D0206F216F496BB8
:103F700088470DE0200001F00AFA09E0200001F076
:103F800006FA05E0200001F002FA002080216050CE
:103F900084E0226E012A6ED1C2066CD5CA066AD5AB
:103FA0001020216808622068806840063AD5206F9A
:103FB0000068406880B2002833D001005822A25A1D
:103FC00089B291422DD25A216052206F80692028F7
:103FD0001ED02068006835490140206801602068D3
:103FE00080680121884321688860206880684021BA
:103FF0008843216888602020E067002020662068D0
:1040000000681021884321680860206F00F0C6FC1A
:104010005820205A5A21615A411A89B2200001F0D1
:10402000B7F93BE05820205A5A21615A411A5A20C8
:10403000205A00281ED089B200291BD020680068B1
:104040001B4A024020680260206880680122904379
:10405000226890602020E0670020206600206066D3
:1040600020680068102290432268106089B2200006
:1040700001F08EF912E0020608D50A0606D5A06EF8
:10408000002802D02000A16E884707E0400605D531
:10409000480603D5200000F01CFAFFE731BD000000
:1040A0000F08000020010004BD440008FFFEFFFFD0
:1040B000DFFEFFFF38B504000025A0682169014339
:1040C00062690A43E0691043216809688F4A0A401F
:1040D000104321680860206840688D490140E0680D
:1040E000084321684860A0690100206A08432168EC
:1040F0008968A34A0A401043216888602068A14962
:10410000884215D1A04800688007800F002805D09C
:10411000022809D006D3032802D007E000201AE0C5
:10412000022018E0042016E0082014E0102012E01D
:1041300020689649884201D100200CE0206894490B
:10414000884201D1002006E020689249884201D1CE
:10415000002000E01020E16980221202914234D157
:10416000C0B2002806D0022807D0042807D00828AB
:1041700008D00AE0FEF7E8FD09E0B34807E0FEF7E3
:10418000A3FD04E08020000201E0002001250028BA
:1041900044D0022148436168490840186168FEF72D
:1041A0001BF980B201001039A84A91420BD20200DB
:1041B000A64911400A0040084107490F114389B23E
:1041C0002068C1602AE0012528E0C0B2002806D09E
:1041D000022807D0042807D0082808D00AE0FEF7F4
:1041E000B3FD09E0984807E0FEF76EFD04E080208B
:1041F000000201E00020012500280FD06168490875
:1042000040186168FEF7E8F880B2010010398F4A63
:10421000914202D22168C86000E00125002060665A
:104220000020A0662800C0B232BD000000B52421E5
:10423000415CC90707D501684968854A0A40816A17
:104240001143026851602421415C890707D5016848
:104250004968804A0A40C16A1143026851602421BA
:10426000415C490707D5016849687B4A0A40016BF0
:104270001143026851602421415C090707D5016898
:104280004968764A0A40416B114302685160242113
:10429000415CC90607D501688968714A0A40816B8B
:1042A0001143026891602421415C890607D50168A9
:1042B00089686C4A0A40C16B1143026891602421ED
:1042C000415C490614D501684968674A0A40016C97
:1042D000114302685160016C80225203914207D160
:1042E00001684968704A0A40416C11430268516094
:1042F0002421415C090607D5016849686B4A0A40D8
:10430000816C11430068416000BD0000F369FFEF5C
:10431000FFCFFFFF38B5040000208021605000F07F
:1043200083FA05002068006800070CD560480090FB
:104330002B00002280218903200000F02DF80028A6
:1043400001D003201AE02068006840070CD55848C7
:1043500000902B0000228021C903200000F01CF8EF
:10436000002801D0032009E02020A0672020E0677A
:1043700000202066002074216054002032BD00001F
:10438000FFF4FFFF003801403010024000440040BD
:1043900000480040004C0040F4B504000D001F0030
:1043A000069E2068C0692840A84201D1012000E093
:1043B000002069460978884243D10020C0438642E4
:1043C000EFD000F031FAC01B864201D3002E14D189
:1043D00020680068374901402068016020688068D3
:1043E00001218843216888602020A0672020E067A1
:1043F000002074216054032024E0206800684007F6
:10440000CFD52068C0690005CBD580200001216888
:104410000862206800682749014020680160206820
:10442000806801218843216888602020A0672020BF
:10443000E067202080216050002074216054032018
:1044400000E00020F2BD000000127A00F0FF000042
:10445000FFFFFDFFFFFFFEFFFFFFFBFFFF7FFFFFF3
:10446000FFEFFFFFFFDFFFFFFFFFEFFF00B501687A
:104470000968114A0A4001680A60016889680122D6
:10448000914302689160016E012905D101680968B4
:1044900010229143026811602021C167002101664A
:1044A0000021416600BD0000FFFF9FFFFFFFF7FFF7
:1044B000FFFFFF015FFEFFFFDFFEFFFF80B5406AE9
:1044C00000215A22815200215222815200F05FFFC6
:1044D00001BD80B5016809684022914302681160FE
:1044E000202181670021816600F053FF01BDFEE7B6
:1044F00080B5654800680121014363480160624856
:1045000000680100C907C90F00910098AC48006815
:10451000802149050143AA480160A948006880211B
:104520004905084000900098002200210420FEF771
:1045300090FC0420FEF792FC01BD10B586B004008B
:1045400001A81421FFF790FB2068504988424BD105
:104550004D4800688021890001434B4801604A486A
:104560000068802189000840009000984848006851
:104570008021890201434648016045480068802146
:1045800089020840009000980420019003200290C6
:104590000020039001A99020C005FDF729FB894860
:1045A0008949086000208849486000208649886061
:1045B00080208549C86080204000834908618020B0
:1045C000C0008149486120207F49886100207E49E0
:1045D000C8617D4800F070F9002801D0FDF704FBA8
:1045E000794820637848446206B010BD80B5016800
:1045F000774A914214D172480068102101437048F3
:1046000001606F4800681021084000900098002267
:1046100000211120FEF71DFC1120FEF71FFC32E0E7
:1046200001686C4A914214D1654800682021014319
:1046300063480160624800682021084000900098AB
:10464000002200211220FEF704FC1220FEF706FCD7
:1046500019E000686049884215D15C4800688021F3
:104660008902014359480160584800688021890245
:10467000084000900098002200211520FEF7E9FB79
:104680001520FEF7EBFB01BD18100240002401408D
:104690001410024010B586B0040001A81421FFF7E1
:1046A000E3FA20684D49884200D087E04748006817
:1046B0008021C901014345480160444800688021C8
:1046C000C90108400090009845480068802189028F
:1046D0000143434801604248006880218902084044
:1046E00000900098C020C00001900220029000209D
:1046F0000390032004900120059001A99020C0059B
:10470000FDF776FA37483849086000203649486096
:1047100000203549886080203349C8600020324934
:10472000086100203049486100202F49886100203D
:104730002D49C8612C4800F0BFF8002801D0FDF7D2
:1047400053FA2A4800688021C900014327480160C4
:1047500025482067244844622548264908601020DF
:104760002449486000202349886080202149C8608E
:1047700000202049086100201E49486100201D4991
:10478000886100201B49C8611A4800F095F800288C
:1047900001D0FDF729FA15480068802189000143FE
:1047A000124801601348E06612484462002200216A
:1047B0001B20FEF74EFB1B20FEF750FB06B010BD82
:1047C0001C10024008000240C405002018100240DE
:1047D0000010004000140040004401400038014037
:1047E000141002405800024008060020000001405A
:1047F000440002404C0600207047704770477047E5
:10480000704770477047FEE7D2B2203A03D30800E2
:10481000D040002170472032D141D04048409140E3
:10482000D14048407047FEE701480068704700BF2C
:104830007C07002010B50400FA2080000E4909789A
:10484000FDF7CAFD01000D480068FDF7C5FDFEF744
:104850000AFB002801D001200CE0042C09D2002220
:1048600021000020C043FEF7F4FA05480460002050
:1048700000E0012010BD00BF110000200400002056
:104880000000002070B4103A03D378C9103A78C001
:10489000FBD2530701D318C918C001D508C908C0F5
:1048A000D20704D30B880380891C801C002A01D501
:1048B0000B78037070BC704710B504000021002C09
:1048C00001D1012024E002202121605420680168E8
:1048D00008001049014008006168A2680A43E168C5
:1048E000114322690A4361691143A2690A43E169DC
:1048F0001143014320680160200000F018F90020F6
:10490000A063012021216054002020216054002058
:1049100010BD00000FC0FFFF70B50400002520206F
:10492000205C012801D1022037E001202026A0557B
:104930002120205C01282AD102202126A055002018
:10494000A063206800680126B0432668306020001C
:1049500000F0D8F8E06A002806D0206800680E2130
:104960000143206801600BE0206800680A210143D0
:10497000206801602068006804218843216808607D
:1049800020680068012101432068016003E00020E5
:104990002021605402252800C0B270BD00B521213D
:1049A000415C022906D00421816300212022815428
:1049B000012017E0016809680E2291430268116026
:1049C0000168096801229143026811600121026CAB
:1049D0009140C26B5160012121228154002120228B
:1049E0008154002000BD10B500242121415C022922
:1049F00003D00421816301241BE0016809680E22B1
:104A000091430268116001680968012291430268BC
:104A100011600121026C9140C26B51600121212281
:104A20008154002120228154416B002901D0416B27
:104A300088472000C0B210BD10B5C16B096802687C
:104A400012680423046CA3400B40002B16D05307BC
:104A500014D501680968890605D40168096804222B
:104A60009143026811600421026C9140C26B516055
:104A7000C16A002945D0C16A884742E00223046C1C
:104A8000A3400B40002B1CD093071AD5016809687E
:104A9000890608D4016809680A22914302681160F6
:104AA0000121212281540221026C9140C26B51608C
:104AB000002120228154816A002922D0816A8847FE
:104AC0001FE00823046CA3400B40002B19D01107F2
:104AD00017D5016809680E2291430268116001210F
:104AE000026C9140C26B516001218163012121223E
:104AF0008154002120228154016B002901D0016BD7
:104B0000884710BD30B50124056CAC40C56B6C60A6
:104B1000046863604368102B04D103689A600068DE
:104B2000C16003E0036899600068C26030BD10B5E1
:104B300004002068044940181421FDF74DFC800052
:104B400020640248E06310BDF8FFFDBF0000024092
:104B5000704770477047FEE7010009D5F4464042B0
:104B600000F006F80122D20711436047010000BFA0
:104B700042221201D21E004207D002D4521E001857
:104B8000FCD5C10A4005120589187047F0B50E0022
:104B90005E400125ED072E40B446AE0ADF184C18E2
:104BA000F44208D2F7420ED2640D01D07F0D12D12B
:104BB00000206146F0BD05D1F74201D87F0D05D137
:104BC0000020C143F0BDFBD1640DF9D00020C143EA
:104BD000490549088FE0E419C902DB0229432B4348
:104BE000DB0A460DC00231438E4630B487B295B21F
:104BF0007D432E0CADB2140C7C43A419260C240466
:104C000025439CB27C43A419190C7943270CC9197C
:104C1000A4B20F043C43090C000C97B247432E0C7E
:104C2000BE193543ADB2170C4743360CBF19A6B2B7
:104C3000BF193E043543240C3E0C36199FB247433E
:104C4000BF19BCB23E0C89191F0C47437F183E04A4
:104C50003443390C704680B297B247432E0CBE19CC
:104C60003543ADB2170C4743360CBF19A6B2BF1976
:104C70003E043543240C3E0C36199FB24743BF19FE
:104C8000BCB23E0C89191F0C47437F183E043443C5
:104C9000390C77463F0C90B278432E0C80190604ED
:104CA000ADB22E43050CA0B22D18120C7A43501948
:104CB000020C80B2240CA4189AB27A43121914047C
:104CC0002043120C89181B0C7B43C91830BCEF0A17
:104CD000394203D1B61940414941641E6F12BF0DDC
:104CE000E41B0BDBFF19BC4211DA24050027420844
:104CF000AE417841614166463143F0BD641C05D147
:104D0000401C6141CF0201D34908F4E750E75DE759
:104D1000F0B40E005E400125ED072E40B446AE0A09
:104D2000DF184C18F4423BD2F74241D2640D43D015
:104D30007F0D38D0E41BC902DB0229432B43CF0A85
:104D4000DB0A0600B61A9F4104D2641EB6197F41E1
:104D5000B6185F416812800D24180018844222DAC8
:104D6000E80C0021B6197F41B61A9F4102D2B6184D
:104D70005F413F1C40414941F4D3241C21DD2405FF
:104D8000B6197F41B61A9F4105D33743C60737434B
:104D90000026012F7041614166463143F0BC7047E7
:104DA000FCD1F74205D20020C14349054908F3E789
:104DB00004D00020C143F1E77F0DFAD00020614606
:104DC000ECE72442FAD1401C61410F03F6D30020E6
:104DD000E2E7012252054B18DA4201D95815704713
:104DE0005B0D0722D2019B1A10D9FF2B1DD2DB05C8
:104DF0000122D2070A4013430903020D1143490A55
:104E0000C200524100D9491CC81870470AD1800A13
:104E10000A0302435212921C04D9D3070B40D00557
:104E200018437047C80FC0077047C80F0002FF3013
:104E3000C005704730B405004D400122D20715402F
:104E40004B180418240E2ED01B0E32D0FF2C34D059
:104E5000FF2B3AD0E4180002090210431143000A64
:104E6000090A9446C2B24A43000AC3B24B43000A3D
:104E70004843110A5B181A43D2B2190A091801D41F
:104E80004918641E080A7F3C23DBFE2C08DAE4057F
:104E900009061143634699416041284330BC70477D
:104EA000FF20C005F9E728001B0EFF2BF6D1D043E9
:104EB000F4E72800FF2CF1D1F9E74002F7D1FF2BEE
:104EC00001D14902F3D1E005E7E7D8054902E4D072
:104ED000EDE743020020641CDFD15B129B1CDCD990
:104EE000D805DAE730B405004D400122D20715405D
:104EF0004B180418240E28D01B0E2FD0FF2C34D0B2
:104F0000FF2B37D0E41A0002090210431143430873
:104F10004808D10D1B1A02D2641EDB181B18DB18BF
:104F2000834200D31B1A4941F9D37F3426DDFE2C7E
:104F300008DAE4054808C90719439141604128434C
:104F400030BC7047FF20C005F9E728001B0E03D0D6
:104F5000FF2BF5D14902F3D0D043F1E7FF2C01D16B
:104F60004002F9D1FF20C005E9E74002F4D1FF2B50
:104F7000F8D1F1E728004902E2D0EDE70B0200206A
:104F80002442DCD15B129B1CD9D9D805D7E701227A
:104F9000D20703004B402ED4431A01D2C01AC918BD
:104FA00030B44B180418240E1B0E22D0FF2C20D036
:104FB000E31A182B1DDC09021143C40D641E000204
:104FC000104394461925ED1A0A00AA40D940451805
:104FD00001D36D08A41CE405D209280A2D062A4332
:104FE0006546AA41604103181B0EFF2B01D3C00D7B
:104FF000C00530BC7047514001E05140CCE7431A36
:1050000003D2C01AC9185040514030B44B1809029D
:1050100011430418240E1B0E40D0FF2C3AD025005B
:105020009D410BD31ED8C50D4002401A0BD3ED0590
:105030000100400AC90591416841DAE7C50D400207
:105040004918401AD5D001214008491C0018FCD548
:105050008C4204D36D1A000AED054019C9E7E80532
:105060001040C6E7182DC4DCAC1C0D00E140E54142
:105070004D40012D4941C40D00021043451A01D491
:105080006D199543641EE405280A2D06954160417B
:1050900030BC7047FF2BACD1D843AAE72442A8D13B
:1050A0000020A6E70CB4012212060318DA4207D842
:1050B0004B18DA4204D802000A43921802D28842FE
:1050C0000CBC7047FCD08142FAE7FEE70122D20710
:1050D0000118090E7F3910D449421F310FD400182E
:1050E00005D2C0011043C84000D5D0437047C0016D
:1050F0001043C84005D4404270470020704700422A
:10510000F3D510007047FEE7012212060118CA42CB
:105110000AD28A420DD83822120609098918C20F0C
:10512000D20711434007704700D0490809090143DD
:1051300001E0C10FC90700207047F0B40125ED0759
:105140000F005F404FD48B4200D1824205D9844684
:10515000100062468C4619006346DF184C18640D37
:105160007F0D3AD0661C760537D0E61B352E34DC31
:10517000DB022B43DB0A0C0DC9022943C912202E86
:105180000DDB1700203E06D01F00F741F3405F40C3
:105190000026012A7741C01871410DD217E017008F
:1051A000F741F2405740F3415A40B340F3405A4070
:1051B0000026801859410AD3A21C52050FD0C207FD
:1051C000012F724117004008CB0718434908641C9F
:1051D00024054208AF4170416141F0BC7047641C36
:1051E00021050020F9E76B400AE06B40ABE7F7428E
:1051F000F3D1E943F1E72442EFD100200021ECE7AD
:105200000C00871A9C4105D2C01BA141D2196341F1
:1052100069406B40AE0ADF184C18F442E7D2640DC7
:105220007F0DE8D0E61B362ED7DCDB022B43DB0AF2
:10523000A4460C0DC9022943C90A012E28DC04D159
:10524000D6075208DF073A435B08EF0A76429041DF
:10525000994114D039423BD1B61940414941761C9D
:10526000394204D1761C001849413942FAD0B94379
:105270006746B74208D9A41B24052143ADE7004285
:10528000EAD13642E8D1A8E7E40AE1070020A4E722
:10529000202E0BDD203E1F00F340F7415F40012A26
:1052A000002257417E42984191410BE01700F7419F
:1052B000F2405740F3415A40B340F3405A407E42D7
:1052C000904199410A0303D2641EB61940414941F5
:1052D0000027641E24054208AE4178416141F0BCBC
:1052E0007047FEE7F4464A1805D200F00DF801D5E4
:1052F00080174008604700F007F80121C90788427D
:1053000000D9080040426047400DC902084301210E
:10531000C9070843520D40210901521A521C06D4F4
:1053200052421F3201D4D0407047C017704700204E
:105330007047FEE70CB4012212060318DA4207D8C0
:105340004B18DA4204D802000A43921802D2814272
:105350000CBC7047FCD088420CBC70479D210200F9
:1053600008D5F446524200F005F80122D207104356
:10537000604700000AD002D4491E9218FCD5C90526
:10538000100A1206524100D3012A48417047704763
:105390007047704700B5FEE700B5FEE770477047FD
:1053A00080B500F033F8FDF76FFD01BD704780B5A3
:1053B0000F48FFF741FB01BD80B50E48FFF73CFBEE
:1053C0000D48FFF739FB01BD80B50C48FCF7B4FD73
:1053D00001BD80B50A48FCF7AFFD01BD80B50948A5
:1053E000FCF7AAFD01BD80B50748FEF729FD01BD08
:1053F000C40500204C06002008060020EC04002014
:10540000340500207C0500201804002003480068B3
:105410000349097840180149086070477C0700205B
:105420001100002070B40121002213E00468001D67
:105430000C4202D04D466D1E64192260241D1B1FB4
:10544000042BFAD225009E0701D52280AD1C0B400B
:1054500000D02A700368001D002BE7D170BC704794
:1054600030B401210268001D002A0FD00368C31860
:10547000446808300C4202D04D466D1E64191D6808
:1054800025601B1D241D121FECD0F8E730BC7047AF
:1054900010B5074979441831064C7C44163404E0B1
:1054A000081D0A68891888470100A142F8D110BD7B
:1054B00008000000280000006DFFFFFF84030000CB
:1054C000180400200000000099FFFFFF14000000F6
:1054D00054000000000000200000000000F00BF865
:1054E000002801D0FFF7D4FF002000BF00BFFCF769
:1054F00051F900F002F80120704780B500F002F881
:1055000001BDFEE70746384600F002F8FBE7FEE77C
:1055100080B500BF00BF024A11001820ABBEFBE7F8
:10552000260002000400000000127A00C832C832CF
:105530007D00011E0A010000FEE7000002030405D1
:10554000060708090A0B0C0D0E0F101001020304C8
:1055500005060708090A0B0C0D0E0F1000000000CD
:105560000000000001020304060708090148804703
:1055700001480047A15500087D55000800BF00BF45
:1055800000BF00BFFFF7AAFF0000000001020304F4
:10559000FEE7FEE7FEE7FEE7FEE7FEE7FEE7FEE7E3
:0255A000704752
:040000050800557D1D
:00000001FF
